{"contracts/lottery.sol":{"Lottery":{"abi":[{"inputs":[{"internalType":"address","name":"vrfCoordinatorV2","type":"address"},{"internalType":"uint256","name":"entranceFee","type":"uint256"},{"internalType":"bytes32","name":"keyHash","type":"bytes32"},{"internalType":"uint64","name":"subscriptionId","type":"uint64"},{"internalType":"uint32","name":"callbackGasLimit","type":"uint32"},{"internalType":"uint256","name":"interval","type":"uint256"}],"stateMutability":"nonpayable","type":"constructor"},{"inputs":[],"name":"Lottery__Closed","type":"error"},{"inputs":[],"name":"Lottery__NotEnoughETHEntered","type":"error"},{"inputs":[],"name":"Lottery__WithdrawCallFailed","type":"error"},{"inputs":[{"internalType":"uint256","name":"currBalance","type":"uint256"},{"internalType":"uint256","name":"players","type":"uint256"},{"internalType":"uint256","name":"lotteryState","type":"uint256"}],"name":"Lottery__noUpkeepNeeded","type":"error"},{"inputs":[{"internalType":"address","name":"have","type":"address"},{"internalType":"address","name":"want","type":"address"}],"name":"OnlyCoordinatorCanFulfill","type":"error"},{"anonymous":false,"inputs":[{"indexed":true,"internalType":"address","name":"player","type":"address"}],"name":"LotteryEnter","type":"event"},{"anonymous":false,"inputs":[{"indexed":true,"internalType":"uint256","name":"requestId","type":"uint256"}],"name":"RequestedLotteryWinner","type":"event"},{"anonymous":false,"inputs":[{"indexed":true,"internalType":"address","name":"winner","type":"address"}],"name":"WinnerPicked","type":"event"},{"inputs":[{"internalType":"bytes","name":"","type":"bytes"}],"name":"checkUpkeep","outputs":[{"internalType":"bool","name":"upkeep","type":"bool"},{"internalType":"bytes","name":"","type":"bytes"}],"stateMutability":"view","type":"function"},{"inputs":[],"name":"enterLottery","outputs":[],"stateMutability":"payable","type":"function"},{"inputs":[],"name":"getEntryFee","outputs":[{"internalType":"uint256","name":"","type":"uint256"}],"stateMutability":"view","type":"function"},{"inputs":[],"name":"getInterval","outputs":[{"internalType":"uint256","name":"","type":"uint256"}],"stateMutability":"view","type":"function"},{"inputs":[],"name":"getLatestTimestamp","outputs":[{"internalType":"uint256","name":"","type":"uint256"}],"stateMutability":"view","type":"function"},{"inputs":[],"name":"getLotteryState","outputs":[{"internalType":"enum Lottery.LotteryState","name":"","type":"uint8"}],"stateMutability":"view","type":"function"},{"inputs":[],"name":"getNumWords","outputs":[{"internalType":"uint8","name":"","type":"uint8"}],"stateMutability":"pure","type":"function"},{"inputs":[],"name":"getNumberOfPlayers","outputs":[{"internalType":"uint256","name":"","type":"uint256"}],"stateMutability":"view","type":"function"},{"inputs":[{"internalType":"uint8","name":"index","type":"uint8"}],"name":"getPlayer","outputs":[{"internalType":"address","name":"","type":"address"}],"stateMutability":"view","type":"function"},{"inputs":[],"name":"getRecentWinner","outputs":[{"internalType":"address","name":"","type":"address"}],"stateMutability":"view","type":"function"},{"inputs":[],"name":"getRequestConfirmations","outputs":[{"internalType":"uint8","name":"","type":"uint8"}],"stateMutability":"pure","type":"function"},{"inputs":[{"internalType":"bytes","name":"","type":"bytes"}],"name":"performUpkeep","outputs":[],"stateMutability":"nonpayable","type":"function"},{"inputs":[{"internalType":"uint256","name":"requestId","type":"uint256"},{"internalType":"uint256[]","name":"randomWords","type":"uint256[]"}],"name":"rawFulfillRandomWords","outputs":[],"stateMutability":"nonpayable","type":"function"}],"devdoc":{"author":"Pankaj Sehrawat","details":"This implements chainlink V2 and chainlink keepers","kind":"dev","methods":{"checkUpkeep(bytes)":{"details":"This is the function that the chainlink keepers call they look for the `upkeepNeeded` to return true. The following should be true for this function to return true: 1. The time interval for selecting winner should have passed. 2. The lottery should have atleast one player and some ETH. 3. Our subscription is funded with LINK. 4. The lottery should be in an `open` state."}},"title":"A Decentralized lottery contract","version":1},"evm":{"bytecode":{"linkReferences":{},"object":"6101606040523480156200001257600080fd5b50604051620018b3380380620018b38339818101604052810190620000389190620001a6565b858073ffffffffffffffffffffffffffffffffffffffff1660808173ffffffffffffffffffffffffffffffffffffffff1660601b81525050508460a081815250508573ffffffffffffffffffffffffffffffffffffffff1660c08173ffffffffffffffffffffffffffffffffffffffff1660601b815250508360e081815250508267ffffffffffffffff166101008167ffffffffffffffff1660c01b815250508163ffffffff166101208163ffffffff1660e01b815250506000600160146101000a81548160ff02191690836001811115620001195762000118620002ae565b5b021790555080610140818152505050505050505062000364565b6000815190506200014481620002e2565b92915050565b6000815190506200015b81620002fc565b92915050565b600081519050620001728162000316565b92915050565b600081519050620001898162000330565b92915050565b600081519050620001a0816200034a565b92915050565b60008060008060008060c08789031215620001c657620001c5620002dd565b5b6000620001d689828a0162000133565b9650506020620001e989828a0162000161565b9550506040620001fc89828a016200014a565b94505060606200020f89828a016200018f565b93505060806200022289828a0162000178565b92505060a06200023589828a0162000161565b9150509295509295509295565b60006200024f8262000260565b9050919050565b6000819050919050565b600073ffffffffffffffffffffffffffffffffffffffff82169050919050565b6000819050919050565b600063ffffffff82169050919050565b600067ffffffffffffffff82169050919050565b7f4e487b7100000000000000000000000000000000000000000000000000000000600052602160045260246000fd5b600080fd5b620002ed8162000242565b8114620002f957600080fd5b50565b620003078162000256565b81146200031357600080fd5b50565b620003218162000280565b81146200032d57600080fd5b50565b6200033b816200028a565b81146200034757600080fd5b50565b62000355816200029a565b81146200036157600080fd5b50565b60805160601c60a05160c05160601c60e0516101005160c01c6101205160e01c610140516114d3620003e06000396000818161069501526107030152600061053701526000610514015260006104f3015260006104b7015260008181610729015261089a0152600081816102f8015261034c01526114d36000f3fe6080604052600436106100c25760003560e01c80636b68c03c1161007f578063c1af578511610059578063c1af57851461026b578063e586a4f014610275578063f43b52cb146102a0578063fd6673f5146102cb576100c2565b80636b68c03c146101d75780636e04ff0d1461020257806391ad27b414610240576100c2565b80631fe543e3146100c757806339fddff6146100f05780634585e33b1461012d578063473f1ddc1461015657806353a2c19a146101815780635f1b0fd8146101ac575b600080fd5b3480156100d357600080fd5b506100ee60048036038101906100e99190610e12565b6102f6565b005b3480156100fc57600080fd5b5061011760048036038101906101129190610e6e565b6103b6565b6040516101249190610fa2565b60405180910390f35b34801561013957600080fd5b50610154600480360381019061014f9190610d4f565b610400565b005b34801561016257600080fd5b5061016b6105ff565b6040516101789190610fa2565b60405180910390f35b34801561018d57600080fd5b50610196610629565b6040516101a391906110d6565b60405180910390f35b3480156101b857600080fd5b506101c1610632565b6040516101ce91906110d6565b60405180910390f35b3480156101e357600080fd5b506101ec61063b565b6040516101f99190611069565b60405180910390f35b34801561020e57600080fd5b5061022960048036038101906102249190610d9c565b610652565b604051610237929190610fe6565b60405180910390f35b34801561024c57600080fd5b506102556106ff565b6040516102629190611084565b60405180910390f35b610273610727565b005b34801561028157600080fd5b5061028a610896565b6040516102979190611084565b60405180910390f35b3480156102ac57600080fd5b506102b56108be565b6040516102c29190611084565b60405180910390f35b3480156102d757600080fd5b506102e06108c8565b6040516102ed9190611084565b60405180910390f35b7f000000000000000000000000000000000000000000000000000000000000000073ffffffffffffffffffffffffffffffffffffffff163373ffffffffffffffffffffffffffffffffffffffff16146103a857337f00000000000000000000000000000000000000000000000000000000000000006040517f1cf993f400000000000000000000000000000000000000000000000000000000815260040161039f929190610fbd565b60405180910390fd5b6103b282826108d4565b5050565b6000808260ff16815481106103ce576103cd6113cb565b5b9060005260206000200160009054906101000a900473ffffffffffffffffffffffffffffffffffffffff169050919050565b600061041a60405180602001604052806000815250610652565b509050806104895747600080549050600160149054906101000a900460ff16600181111561044b5761044a61139c565b5b6040517f22e344be0000000000000000000000000000000000000000000000000000000081526004016104809392919061109f565b60405180910390fd5b60018060146101000a81548160ff021916908360018111156104ae576104ad61139c565b5b021790555060007f000000000000000000000000000000000000000000000000000000000000000073ffffffffffffffffffffffffffffffffffffffff16635d3b1d307f00000000000000000000000000000000000000000000000000000000000000007f000000000000000000000000000000000000000000000000000000000000000060037f000000000000000000000000000000000000000000000000000000000000000060016040518663ffffffff1660e01b8152600401610578959493929190611016565b602060405180830381600087803b15801561059257600080fd5b505af11580156105a6573d6000803e3d6000fd5b505050506040513d601f19601f820116820180604052508101906105ca9190610de5565b9050807febf56642252004c18a776f30d528e7a0ce8c5db14b6596fb6550f630c8a24c6c60405160405180910390a250505050565b6000600160009054906101000a900473ffffffffffffffffffffffffffffffffffffffff16905090565b60006001905090565b60006003905090565b6000600160149054906101000a900460ff16905090565b600060606000600160149054906101000a900460ff16600181111561067a5761067961139c565b5b6000600181111561068e5761068d61139c565b5b14905060007f0000000000000000000000000000000000000000000000000000000000000000600254426106c2919061119a565b119050600080600080549050119050600080471190508380156106e25750825b80156106eb5750815b80156106f45750805b955050505050915091565b60007f0000000000000000000000000000000000000000000000000000000000000000905090565b7f0000000000000000000000000000000000000000000000000000000000000000341015610781576040517fec269fd100000000000000000000000000000000000000000000000000000000815260040160405180910390fd5b600060018111156107955761079461139c565b5b600160149054906101000a900460ff1660018111156107b7576107b661139c565b5b146107ee576040517f7d6d79f400000000000000000000000000000000000000000000000000000000815260040160405180910390fd5b6000339080600181540180825580915050600190039060005260206000200160009091909190916101000a81548173ffffffffffffffffffffffffffffffffffffffff021916908373ffffffffffffffffffffffffffffffffffffffff1602179055503373ffffffffffffffffffffffffffffffffffffffff167f1d64fb5ba9f2548c5b98468d58f25b87b9e866afee0122e92d9fe722bf85076c60405160405180910390a2565b60007f0000000000000000000000000000000000000000000000000000000000000000905090565b6000600254905090565b60008080549050905090565b60008080549050826000815181106108ef576108ee6113cb565b5b6020026020010151610901919061130d565b90506000808281548110610918576109176113cb565b5b9060005260206000200160009054906101000a900473ffffffffffffffffffffffffffffffffffffffff16905080600160006101000a81548173ffffffffffffffffffffffffffffffffffffffff021916908373ffffffffffffffffffffffffffffffffffffffff16021790555060008173ffffffffffffffffffffffffffffffffffffffff16476040516109ac90610f8d565b60006040518083038185875af1925050503d80600081146109e9576040519150601f19603f3d011682016040523d82523d6000602084013e6109ee565b606091505b5050905080610a29576040517fe3db163900000000000000000000000000000000000000000000000000000000815260040160405180910390fd5b6000600160146101000a81548160ff02191690836001811115610a4f57610a4e61139c565b5b0217905550600067ffffffffffffffff811115610a6f57610a6e6113fa565b5b604051908082528060200260200182016040528015610a9d5781602001602082028036833780820191505090505b5060009080519060200190610ab3929190610b05565b50426002819055508173ffffffffffffffffffffffffffffffffffffffff167f5b690ec4a06fe979403046eaeea5b3ce38524683c3001f662c8b5a829632f7df60405160405180910390a25050505050565b828054828255906000526020600020908101928215610b7e579160200282015b82811115610b7d5782518260006101000a81548173ffffffffffffffffffffffffffffffffffffffff021916908373ffffffffffffffffffffffffffffffffffffffff16021790555091602001919060010190610b25565b5b509050610b8b9190610b8f565b5090565b5b80821115610ba8576000816000905550600101610b90565b5090565b6000610bbf610bba84611116565b6110f1565b90508083825260208201905082856020860282011115610be257610be1611433565b5b60005b85811015610c125781610bf88882610d10565b845260208401935060208301925050600181019050610be5565b5050509392505050565b6000610c2f610c2a84611142565b6110f1565b905082815260208101848484011115610c4b57610c4a611438565b5b610c5684828561129a565b509392505050565b600082601f830112610c7357610c7261142e565b5b8135610c83848260208601610bac565b91505092915050565b60008083601f840112610ca257610ca161142e565b5b8235905067ffffffffffffffff811115610cbf57610cbe611429565b5b602083019150836001820283011115610cdb57610cda611433565b5b9250929050565b600082601f830112610cf757610cf661142e565b5b8135610d07848260208601610c1c565b91505092915050565b600081359050610d1f8161146f565b92915050565b600081519050610d348161146f565b92915050565b600081359050610d4981611486565b92915050565b60008060208385031215610d6657610d65611442565b5b600083013567ffffffffffffffff811115610d8457610d8361143d565b5b610d9085828601610c8c565b92509250509250929050565b600060208284031215610db257610db1611442565b5b600082013567ffffffffffffffff811115610dd057610dcf61143d565b5b610ddc84828501610ce2565b91505092915050565b600060208284031215610dfb57610dfa611442565b5b6000610e0984828501610d25565b91505092915050565b60008060408385031215610e2957610e28611442565b5b6000610e3785828601610d10565b925050602083013567ffffffffffffffff811115610e5857610e5761143d565b5b610e6485828601610c5e565b9150509250929050565b600060208284031215610e8457610e83611442565b5b6000610e9284828501610d3a565b91505092915050565b610ea4816111ce565b82525050565b610eb3816111e0565b82525050565b610ec2816111ec565b82525050565b6000610ed382611173565b610edd818561117e565b9350610eed8185602086016112a9565b610ef681611447565b840191505092915050565b610f0a81611264565b82525050565b6000610f1d60008361118f565b9150610f2882611458565b600082019050919050565b610f3c81611229565b82525050565b610f4b81611233565b82525050565b610f5a81611243565b82525050565b610f6981611276565b82525050565b610f7881611288565b82525050565b610f8781611257565b82525050565b6000610f9882610f10565b9150819050919050565b6000602082019050610fb76000830184610e9b565b92915050565b6000604082019050610fd26000830185610e9b565b610fdf6020830184610e9b565b9392505050565b6000604082019050610ffb6000830185610eaa565b818103602083015261100d8184610ec8565b90509392505050565b600060a08201905061102b6000830188610eb9565b6110386020830187610f51565b6110456040830186610f60565b6110526060830185610f42565b61105f6080830184610f6f565b9695505050505050565b600060208201905061107e6000830184610f01565b92915050565b60006020820190506110996000830184610f33565b92915050565b60006060820190506110b46000830186610f33565b6110c16020830185610f33565b6110ce6040830184610f33565b949350505050565b60006020820190506110eb6000830184610f7e565b92915050565b60006110fb61110c565b905061110782826112dc565b919050565b6000604051905090565b600067ffffffffffffffff821115611131576111306113fa565b5b602082029050602081019050919050565b600067ffffffffffffffff82111561115d5761115c6113fa565b5b61116682611447565b9050602081019050919050565b600081519050919050565b600082825260208201905092915050565b600081905092915050565b60006111a582611229565b91506111b083611229565b9250828210156111c3576111c261133e565b5b828203905092915050565b60006111d982611209565b9050919050565b60008115159050919050565b6000819050919050565b60008190506112048261145b565b919050565b600073ffffffffffffffffffffffffffffffffffffffff82169050919050565b6000819050919050565b600063ffffffff82169050919050565b600067ffffffffffffffff82169050919050565b600060ff82169050919050565b600061126f826111f6565b9050919050565b600061128182611257565b9050919050565b600061129382611257565b9050919050565b82818337600083830152505050565b60005b838110156112c75780820151818401526020810190506112ac565b838111156112d6576000848401525b50505050565b6112e582611447565b810181811067ffffffffffffffff82111715611304576113036113fa565b5b80604052505050565b600061131882611229565b915061132383611229565b9250826113335761133261136d565b5b828206905092915050565b7f4e487b7100000000000000000000000000000000000000000000000000000000600052601160045260246000fd5b7f4e487b7100000000000000000000000000000000000000000000000000000000600052601260045260246000fd5b7f4e487b7100000000000000000000000000000000000000000000000000000000600052602160045260246000fd5b7f4e487b7100000000000000000000000000000000000000000000000000000000600052603260045260246000fd5b7f4e487b7100000000000000000000000000000000000000000000000000000000600052604160045260246000fd5b600080fd5b600080fd5b600080fd5b600080fd5b600080fd5b600080fd5b6000601f19601f8301169050919050565b50565b6002811061146c5761146b61139c565b5b50565b61147881611229565b811461148357600080fd5b50565b61148f81611257565b811461149a57600080fd5b5056fea2646970667358221220ddbd528620d420a2cc50bdafc8d7d28282cda0f08852113f7f2bfe4d0396037e64736f6c63430008070033","opcodes":"PUSH2 0x160 PUSH1 0x40 MSTORE CALLVALUE DUP1 ISZERO PUSH3 0x12 JUMPI PUSH1 0x0 DUP1 REVERT JUMPDEST POP PUSH1 0x40 MLOAD PUSH3 0x18B3 CODESIZE SUB DUP1 PUSH3 0x18B3 DUP4 CODECOPY DUP2 DUP2 ADD PUSH1 0x40 MSTORE DUP2 ADD SWAP1 PUSH3 0x38 SWAP2 SWAP1 PUSH3 0x1A6 JUMP JUMPDEST DUP6 DUP1 PUSH20 0xFFFFFFFFFFFFFFFFFFFFFFFFFFFFFFFFFFFFFFFF AND PUSH1 0x80 DUP2 PUSH20 0xFFFFFFFFFFFFFFFFFFFFFFFFFFFFFFFFFFFFFFFF AND PUSH1 0x60 SHL DUP2 MSTORE POP POP POP DUP5 PUSH1 0xA0 DUP2 DUP2 MSTORE POP POP DUP6 PUSH20 0xFFFFFFFFFFFFFFFFFFFFFFFFFFFFFFFFFFFFFFFF AND PUSH1 0xC0 DUP2 PUSH20 0xFFFFFFFFFFFFFFFFFFFFFFFFFFFFFFFFFFFFFFFF AND PUSH1 0x60 SHL DUP2 MSTORE POP POP DUP4 PUSH1 0xE0 DUP2 DUP2 MSTORE POP POP DUP3 PUSH8 0xFFFFFFFFFFFFFFFF AND PUSH2 0x100 DUP2 PUSH8 0xFFFFFFFFFFFFFFFF AND PUSH1 0xC0 SHL DUP2 MSTORE POP POP DUP2 PUSH4 0xFFFFFFFF AND PUSH2 0x120 DUP2 PUSH4 0xFFFFFFFF AND PUSH1 0xE0 SHL DUP2 MSTORE POP POP PUSH1 0x0 PUSH1 0x1 PUSH1 0x14 PUSH2 0x100 EXP DUP2 SLOAD DUP2 PUSH1 0xFF MUL NOT AND SWAP1 DUP4 PUSH1 0x1 DUP2 GT ISZERO PUSH3 0x119 JUMPI PUSH3 0x118 PUSH3 0x2AE JUMP JUMPDEST JUMPDEST MUL OR SWAP1 SSTORE POP DUP1 PUSH2 0x140 DUP2 DUP2 MSTORE POP POP POP POP POP POP POP POP PUSH3 0x364 JUMP JUMPDEST PUSH1 0x0 DUP2 MLOAD SWAP1 POP PUSH3 0x144 DUP2 PUSH3 0x2E2 JUMP JUMPDEST SWAP3 SWAP2 POP POP JUMP JUMPDEST PUSH1 0x0 DUP2 MLOAD SWAP1 POP PUSH3 0x15B DUP2 PUSH3 0x2FC JUMP JUMPDEST SWAP3 SWAP2 POP POP JUMP JUMPDEST PUSH1 0x0 DUP2 MLOAD SWAP1 POP PUSH3 0x172 DUP2 PUSH3 0x316 JUMP JUMPDEST SWAP3 SWAP2 POP POP JUMP JUMPDEST PUSH1 0x0 DUP2 MLOAD SWAP1 POP PUSH3 0x189 DUP2 PUSH3 0x330 JUMP JUMPDEST SWAP3 SWAP2 POP POP JUMP JUMPDEST PUSH1 0x0 DUP2 MLOAD SWAP1 POP PUSH3 0x1A0 DUP2 PUSH3 0x34A JUMP JUMPDEST SWAP3 SWAP2 POP POP JUMP JUMPDEST PUSH1 0x0 DUP1 PUSH1 0x0 DUP1 PUSH1 0x0 DUP1 PUSH1 0xC0 DUP8 DUP10 SUB SLT ISZERO PUSH3 0x1C6 JUMPI PUSH3 0x1C5 PUSH3 0x2DD JUMP JUMPDEST JUMPDEST PUSH1 0x0 PUSH3 0x1D6 DUP10 DUP3 DUP11 ADD PUSH3 0x133 JUMP JUMPDEST SWAP7 POP POP PUSH1 0x20 PUSH3 0x1E9 DUP10 DUP3 DUP11 ADD PUSH3 0x161 JUMP JUMPDEST SWAP6 POP POP PUSH1 0x40 PUSH3 0x1FC DUP10 DUP3 DUP11 ADD PUSH3 0x14A JUMP JUMPDEST SWAP5 POP POP PUSH1 0x60 PUSH3 0x20F DUP10 DUP3 DUP11 ADD PUSH3 0x18F JUMP JUMPDEST SWAP4 POP POP PUSH1 0x80 PUSH3 0x222 DUP10 DUP3 DUP11 ADD PUSH3 0x178 JUMP JUMPDEST SWAP3 POP POP PUSH1 0xA0 PUSH3 0x235 DUP10 DUP3 DUP11 ADD PUSH3 0x161 JUMP JUMPDEST SWAP2 POP POP SWAP3 SWAP6 POP SWAP3 SWAP6 POP SWAP3 SWAP6 JUMP JUMPDEST PUSH1 0x0 PUSH3 0x24F DUP3 PUSH3 0x260 JUMP JUMPDEST SWAP1 POP SWAP2 SWAP1 POP JUMP JUMPDEST PUSH1 0x0 DUP2 SWAP1 POP SWAP2 SWAP1 POP JUMP JUMPDEST PUSH1 0x0 PUSH20 0xFFFFFFFFFFFFFFFFFFFFFFFFFFFFFFFFFFFFFFFF DUP3 AND SWAP1 POP SWAP2 SWAP1 POP JUMP JUMPDEST PUSH1 0x0 DUP2 SWAP1 POP SWAP2 SWAP1 POP JUMP JUMPDEST PUSH1 0x0 PUSH4 0xFFFFFFFF DUP3 AND SWAP1 POP SWAP2 SWAP1 POP JUMP JUMPDEST PUSH1 0x0 PUSH8 0xFFFFFFFFFFFFFFFF DUP3 AND SWAP1 POP SWAP2 SWAP1 POP JUMP JUMPDEST PUSH32 0x4E487B7100000000000000000000000000000000000000000000000000000000 PUSH1 0x0 MSTORE PUSH1 0x21 PUSH1 0x4 MSTORE PUSH1 0x24 PUSH1 0x0 REVERT JUMPDEST PUSH1 0x0 DUP1 REVERT JUMPDEST PUSH3 0x2ED DUP2 PUSH3 0x242 JUMP JUMPDEST DUP2 EQ PUSH3 0x2F9 JUMPI PUSH1 0x0 DUP1 REVERT JUMPDEST POP JUMP JUMPDEST PUSH3 0x307 DUP2 PUSH3 0x256 JUMP JUMPDEST DUP2 EQ PUSH3 0x313 JUMPI PUSH1 0x0 DUP1 REVERT JUMPDEST POP JUMP JUMPDEST PUSH3 0x321 DUP2 PUSH3 0x280 JUMP JUMPDEST DUP2 EQ PUSH3 0x32D JUMPI PUSH1 0x0 DUP1 REVERT JUMPDEST POP JUMP JUMPDEST PUSH3 0x33B DUP2 PUSH3 0x28A JUMP JUMPDEST DUP2 EQ PUSH3 0x347 JUMPI PUSH1 0x0 DUP1 REVERT JUMPDEST POP JUMP JUMPDEST PUSH3 0x355 DUP2 PUSH3 0x29A JUMP JUMPDEST DUP2 EQ PUSH3 0x361 JUMPI PUSH1 0x0 DUP1 REVERT JUMPDEST POP JUMP JUMPDEST PUSH1 0x80 MLOAD PUSH1 0x60 SHR PUSH1 0xA0 MLOAD PUSH1 0xC0 MLOAD PUSH1 0x60 SHR PUSH1 0xE0 MLOAD PUSH2 0x100 MLOAD PUSH1 0xC0 SHR PUSH2 0x120 MLOAD PUSH1 0xE0 SHR PUSH2 0x140 MLOAD PUSH2 0x14D3 PUSH3 0x3E0 PUSH1 0x0 CODECOPY PUSH1 0x0 DUP2 DUP2 PUSH2 0x695 ADD MSTORE PUSH2 0x703 ADD MSTORE PUSH1 0x0 PUSH2 0x537 ADD MSTORE PUSH1 0x0 PUSH2 0x514 ADD MSTORE PUSH1 0x0 PUSH2 0x4F3 ADD MSTORE PUSH1 0x0 PUSH2 0x4B7 ADD MSTORE PUSH1 0x0 DUP2 DUP2 PUSH2 0x729 ADD MSTORE PUSH2 0x89A ADD MSTORE PUSH1 0x0 DUP2 DUP2 PUSH2 0x2F8 ADD MSTORE PUSH2 0x34C ADD MSTORE PUSH2 0x14D3 PUSH1 0x0 RETURN INVALID PUSH1 0x80 PUSH1 0x40 MSTORE PUSH1 0x4 CALLDATASIZE LT PUSH2 0xC2 JUMPI PUSH1 0x0 CALLDATALOAD PUSH1 0xE0 SHR DUP1 PUSH4 0x6B68C03C GT PUSH2 0x7F JUMPI DUP1 PUSH4 0xC1AF5785 GT PUSH2 0x59 JUMPI DUP1 PUSH4 0xC1AF5785 EQ PUSH2 0x26B JUMPI DUP1 PUSH4 0xE586A4F0 EQ PUSH2 0x275 JUMPI DUP1 PUSH4 0xF43B52CB EQ PUSH2 0x2A0 JUMPI DUP1 PUSH4 0xFD6673F5 EQ PUSH2 0x2CB JUMPI PUSH2 0xC2 JUMP JUMPDEST DUP1 PUSH4 0x6B68C03C EQ PUSH2 0x1D7 JUMPI DUP1 PUSH4 0x6E04FF0D EQ PUSH2 0x202 JUMPI DUP1 PUSH4 0x91AD27B4 EQ PUSH2 0x240 JUMPI PUSH2 0xC2 JUMP JUMPDEST DUP1 PUSH4 0x1FE543E3 EQ PUSH2 0xC7 JUMPI DUP1 PUSH4 0x39FDDFF6 EQ PUSH2 0xF0 JUMPI DUP1 PUSH4 0x4585E33B EQ PUSH2 0x12D JUMPI DUP1 PUSH4 0x473F1DDC EQ PUSH2 0x156 JUMPI DUP1 PUSH4 0x53A2C19A EQ PUSH2 0x181 JUMPI DUP1 PUSH4 0x5F1B0FD8 EQ PUSH2 0x1AC JUMPI JUMPDEST PUSH1 0x0 DUP1 REVERT JUMPDEST CALLVALUE DUP1 ISZERO PUSH2 0xD3 JUMPI PUSH1 0x0 DUP1 REVERT JUMPDEST POP PUSH2 0xEE PUSH1 0x4 DUP1 CALLDATASIZE SUB DUP2 ADD SWAP1 PUSH2 0xE9 SWAP2 SWAP1 PUSH2 0xE12 JUMP JUMPDEST PUSH2 0x2F6 JUMP JUMPDEST STOP JUMPDEST CALLVALUE DUP1 ISZERO PUSH2 0xFC JUMPI PUSH1 0x0 DUP1 REVERT JUMPDEST POP PUSH2 0x117 PUSH1 0x4 DUP1 CALLDATASIZE SUB DUP2 ADD SWAP1 PUSH2 0x112 SWAP2 SWAP1 PUSH2 0xE6E JUMP JUMPDEST PUSH2 0x3B6 JUMP JUMPDEST PUSH1 0x40 MLOAD PUSH2 0x124 SWAP2 SWAP1 PUSH2 0xFA2 JUMP JUMPDEST PUSH1 0x40 MLOAD DUP1 SWAP2 SUB SWAP1 RETURN JUMPDEST CALLVALUE DUP1 ISZERO PUSH2 0x139 JUMPI PUSH1 0x0 DUP1 REVERT JUMPDEST POP PUSH2 0x154 PUSH1 0x4 DUP1 CALLDATASIZE SUB DUP2 ADD SWAP1 PUSH2 0x14F SWAP2 SWAP1 PUSH2 0xD4F JUMP JUMPDEST PUSH2 0x400 JUMP JUMPDEST STOP JUMPDEST CALLVALUE DUP1 ISZERO PUSH2 0x162 JUMPI PUSH1 0x0 DUP1 REVERT JUMPDEST POP PUSH2 0x16B PUSH2 0x5FF JUMP JUMPDEST PUSH1 0x40 MLOAD PUSH2 0x178 SWAP2 SWAP1 PUSH2 0xFA2 JUMP JUMPDEST PUSH1 0x40 MLOAD DUP1 SWAP2 SUB SWAP1 RETURN JUMPDEST CALLVALUE DUP1 ISZERO PUSH2 0x18D JUMPI PUSH1 0x0 DUP1 REVERT JUMPDEST POP PUSH2 0x196 PUSH2 0x629 JUMP JUMPDEST PUSH1 0x40 MLOAD PUSH2 0x1A3 SWAP2 SWAP1 PUSH2 0x10D6 JUMP JUMPDEST PUSH1 0x40 MLOAD DUP1 SWAP2 SUB SWAP1 RETURN JUMPDEST CALLVALUE DUP1 ISZERO PUSH2 0x1B8 JUMPI PUSH1 0x0 DUP1 REVERT JUMPDEST POP PUSH2 0x1C1 PUSH2 0x632 JUMP JUMPDEST PUSH1 0x40 MLOAD PUSH2 0x1CE SWAP2 SWAP1 PUSH2 0x10D6 JUMP JUMPDEST PUSH1 0x40 MLOAD DUP1 SWAP2 SUB SWAP1 RETURN JUMPDEST CALLVALUE DUP1 ISZERO PUSH2 0x1E3 JUMPI PUSH1 0x0 DUP1 REVERT JUMPDEST POP PUSH2 0x1EC PUSH2 0x63B JUMP JUMPDEST PUSH1 0x40 MLOAD PUSH2 0x1F9 SWAP2 SWAP1 PUSH2 0x1069 JUMP JUMPDEST PUSH1 0x40 MLOAD DUP1 SWAP2 SUB SWAP1 RETURN JUMPDEST CALLVALUE DUP1 ISZERO PUSH2 0x20E JUMPI PUSH1 0x0 DUP1 REVERT JUMPDEST POP PUSH2 0x229 PUSH1 0x4 DUP1 CALLDATASIZE SUB DUP2 ADD SWAP1 PUSH2 0x224 SWAP2 SWAP1 PUSH2 0xD9C JUMP JUMPDEST PUSH2 0x652 JUMP JUMPDEST PUSH1 0x40 MLOAD PUSH2 0x237 SWAP3 SWAP2 SWAP1 PUSH2 0xFE6 JUMP JUMPDEST PUSH1 0x40 MLOAD DUP1 SWAP2 SUB SWAP1 RETURN JUMPDEST CALLVALUE DUP1 ISZERO PUSH2 0x24C JUMPI PUSH1 0x0 DUP1 REVERT JUMPDEST POP PUSH2 0x255 PUSH2 0x6FF JUMP JUMPDEST PUSH1 0x40 MLOAD PUSH2 0x262 SWAP2 SWAP1 PUSH2 0x1084 JUMP JUMPDEST PUSH1 0x40 MLOAD DUP1 SWAP2 SUB SWAP1 RETURN JUMPDEST PUSH2 0x273 PUSH2 0x727 JUMP JUMPDEST STOP JUMPDEST CALLVALUE DUP1 ISZERO PUSH2 0x281 JUMPI PUSH1 0x0 DUP1 REVERT JUMPDEST POP PUSH2 0x28A PUSH2 0x896 JUMP JUMPDEST PUSH1 0x40 MLOAD PUSH2 0x297 SWAP2 SWAP1 PUSH2 0x1084 JUMP JUMPDEST PUSH1 0x40 MLOAD DUP1 SWAP2 SUB SWAP1 RETURN JUMPDEST CALLVALUE DUP1 ISZERO PUSH2 0x2AC JUMPI PUSH1 0x0 DUP1 REVERT JUMPDEST POP PUSH2 0x2B5 PUSH2 0x8BE JUMP JUMPDEST PUSH1 0x40 MLOAD PUSH2 0x2C2 SWAP2 SWAP1 PUSH2 0x1084 JUMP JUMPDEST PUSH1 0x40 MLOAD DUP1 SWAP2 SUB SWAP1 RETURN JUMPDEST CALLVALUE DUP1 ISZERO PUSH2 0x2D7 JUMPI PUSH1 0x0 DUP1 REVERT JUMPDEST POP PUSH2 0x2E0 PUSH2 0x8C8 JUMP JUMPDEST PUSH1 0x40 MLOAD PUSH2 0x2ED SWAP2 SWAP1 PUSH2 0x1084 JUMP JUMPDEST PUSH1 0x40 MLOAD DUP1 SWAP2 SUB SWAP1 RETURN JUMPDEST PUSH32 0x0 PUSH20 0xFFFFFFFFFFFFFFFFFFFFFFFFFFFFFFFFFFFFFFFF AND CALLER PUSH20 0xFFFFFFFFFFFFFFFFFFFFFFFFFFFFFFFFFFFFFFFF AND EQ PUSH2 0x3A8 JUMPI CALLER PUSH32 0x0 PUSH1 0x40 MLOAD PUSH32 0x1CF993F400000000000000000000000000000000000000000000000000000000 DUP2 MSTORE PUSH1 0x4 ADD PUSH2 0x39F SWAP3 SWAP2 SWAP1 PUSH2 0xFBD JUMP JUMPDEST PUSH1 0x40 MLOAD DUP1 SWAP2 SUB SWAP1 REVERT JUMPDEST PUSH2 0x3B2 DUP3 DUP3 PUSH2 0x8D4 JUMP JUMPDEST POP POP JUMP JUMPDEST PUSH1 0x0 DUP1 DUP3 PUSH1 0xFF AND DUP2 SLOAD DUP2 LT PUSH2 0x3CE JUMPI PUSH2 0x3CD PUSH2 0x13CB JUMP JUMPDEST JUMPDEST SWAP1 PUSH1 0x0 MSTORE PUSH1 0x20 PUSH1 0x0 KECCAK256 ADD PUSH1 0x0 SWAP1 SLOAD SWAP1 PUSH2 0x100 EXP SWAP1 DIV PUSH20 0xFFFFFFFFFFFFFFFFFFFFFFFFFFFFFFFFFFFFFFFF AND SWAP1 POP SWAP2 SWAP1 POP JUMP JUMPDEST PUSH1 0x0 PUSH2 0x41A PUSH1 0x40 MLOAD DUP1 PUSH1 0x20 ADD PUSH1 0x40 MSTORE DUP1 PUSH1 0x0 DUP2 MSTORE POP PUSH2 0x652 JUMP JUMPDEST POP SWAP1 POP DUP1 PUSH2 0x489 JUMPI SELFBALANCE PUSH1 0x0 DUP1 SLOAD SWAP1 POP PUSH1 0x1 PUSH1 0x14 SWAP1 SLOAD SWAP1 PUSH2 0x100 EXP SWAP1 DIV PUSH1 0xFF AND PUSH1 0x1 DUP2 GT ISZERO PUSH2 0x44B JUMPI PUSH2 0x44A PUSH2 0x139C JUMP JUMPDEST JUMPDEST PUSH1 0x40 MLOAD PUSH32 0x22E344BE00000000000000000000000000000000000000000000000000000000 DUP2 MSTORE PUSH1 0x4 ADD PUSH2 0x480 SWAP4 SWAP3 SWAP2 SWAP1 PUSH2 0x109F JUMP JUMPDEST PUSH1 0x40 MLOAD DUP1 SWAP2 SUB SWAP1 REVERT JUMPDEST PUSH1 0x1 DUP1 PUSH1 0x14 PUSH2 0x100 EXP DUP2 SLOAD DUP2 PUSH1 0xFF MUL NOT AND SWAP1 DUP4 PUSH1 0x1 DUP2 GT ISZERO PUSH2 0x4AE JUMPI PUSH2 0x4AD PUSH2 0x139C JUMP JUMPDEST JUMPDEST MUL OR SWAP1 SSTORE POP PUSH1 0x0 PUSH32 0x0 PUSH20 0xFFFFFFFFFFFFFFFFFFFFFFFFFFFFFFFFFFFFFFFF AND PUSH4 0x5D3B1D30 PUSH32 0x0 PUSH32 0x0 PUSH1 0x3 PUSH32 0x0 PUSH1 0x1 PUSH1 0x40 MLOAD DUP7 PUSH4 0xFFFFFFFF AND PUSH1 0xE0 SHL DUP2 MSTORE PUSH1 0x4 ADD PUSH2 0x578 SWAP6 SWAP5 SWAP4 SWAP3 SWAP2 SWAP1 PUSH2 0x1016 JUMP JUMPDEST PUSH1 0x20 PUSH1 0x40 MLOAD DUP1 DUP4 SUB DUP2 PUSH1 0x0 DUP8 DUP1 EXTCODESIZE ISZERO DUP1 ISZERO PUSH2 0x592 JUMPI PUSH1 0x0 DUP1 REVERT JUMPDEST POP GAS CALL ISZERO DUP1 ISZERO PUSH2 0x5A6 JUMPI RETURNDATASIZE PUSH1 0x0 DUP1 RETURNDATACOPY RETURNDATASIZE PUSH1 0x0 REVERT JUMPDEST POP POP POP POP PUSH1 0x40 MLOAD RETURNDATASIZE PUSH1 0x1F NOT PUSH1 0x1F DUP3 ADD AND DUP3 ADD DUP1 PUSH1 0x40 MSTORE POP DUP2 ADD SWAP1 PUSH2 0x5CA SWAP2 SWAP1 PUSH2 0xDE5 JUMP JUMPDEST SWAP1 POP DUP1 PUSH32 0xEBF56642252004C18A776F30D528E7A0CE8C5DB14B6596FB6550F630C8A24C6C PUSH1 0x40 MLOAD PUSH1 0x40 MLOAD DUP1 SWAP2 SUB SWAP1 LOG2 POP POP POP POP JUMP JUMPDEST PUSH1 0x0 PUSH1 0x1 PUSH1 0x0 SWAP1 SLOAD SWAP1 PUSH2 0x100 EXP SWAP1 DIV PUSH20 0xFFFFFFFFFFFFFFFFFFFFFFFFFFFFFFFFFFFFFFFF AND SWAP1 POP SWAP1 JUMP JUMPDEST PUSH1 0x0 PUSH1 0x1 SWAP1 POP SWAP1 JUMP JUMPDEST PUSH1 0x0 PUSH1 0x3 SWAP1 POP SWAP1 JUMP JUMPDEST PUSH1 0x0 PUSH1 0x1 PUSH1 0x14 SWAP1 SLOAD SWAP1 PUSH2 0x100 EXP SWAP1 DIV PUSH1 0xFF AND SWAP1 POP SWAP1 JUMP JUMPDEST PUSH1 0x0 PUSH1 0x60 PUSH1 0x0 PUSH1 0x1 PUSH1 0x14 SWAP1 SLOAD SWAP1 PUSH2 0x100 EXP SWAP1 DIV PUSH1 0xFF AND PUSH1 0x1 DUP2 GT ISZERO PUSH2 0x67A JUMPI PUSH2 0x679 PUSH2 0x139C JUMP JUMPDEST JUMPDEST PUSH1 0x0 PUSH1 0x1 DUP2 GT ISZERO PUSH2 0x68E JUMPI PUSH2 0x68D PUSH2 0x139C JUMP JUMPDEST JUMPDEST EQ SWAP1 POP PUSH1 0x0 PUSH32 0x0 PUSH1 0x2 SLOAD TIMESTAMP PUSH2 0x6C2 SWAP2 SWAP1 PUSH2 0x119A JUMP JUMPDEST GT SWAP1 POP PUSH1 0x0 DUP1 PUSH1 0x0 DUP1 SLOAD SWAP1 POP GT SWAP1 POP PUSH1 0x0 DUP1 SELFBALANCE GT SWAP1 POP DUP4 DUP1 ISZERO PUSH2 0x6E2 JUMPI POP DUP3 JUMPDEST DUP1 ISZERO PUSH2 0x6EB JUMPI POP DUP2 JUMPDEST DUP1 ISZERO PUSH2 0x6F4 JUMPI POP DUP1 JUMPDEST SWAP6 POP POP POP POP POP SWAP2 POP SWAP2 JUMP JUMPDEST PUSH1 0x0 PUSH32 0x0 SWAP1 POP SWAP1 JUMP JUMPDEST PUSH32 0x0 CALLVALUE LT ISZERO PUSH2 0x781 JUMPI PUSH1 0x40 MLOAD PUSH32 0xEC269FD100000000000000000000000000000000000000000000000000000000 DUP2 MSTORE PUSH1 0x4 ADD PUSH1 0x40 MLOAD DUP1 SWAP2 SUB SWAP1 REVERT JUMPDEST PUSH1 0x0 PUSH1 0x1 DUP2 GT ISZERO PUSH2 0x795 JUMPI PUSH2 0x794 PUSH2 0x139C JUMP JUMPDEST JUMPDEST PUSH1 0x1 PUSH1 0x14 SWAP1 SLOAD SWAP1 PUSH2 0x100 EXP SWAP1 DIV PUSH1 0xFF AND PUSH1 0x1 DUP2 GT ISZERO PUSH2 0x7B7 JUMPI PUSH2 0x7B6 PUSH2 0x139C JUMP JUMPDEST JUMPDEST EQ PUSH2 0x7EE JUMPI PUSH1 0x40 MLOAD PUSH32 0x7D6D79F400000000000000000000000000000000000000000000000000000000 DUP2 MSTORE PUSH1 0x4 ADD PUSH1 0x40 MLOAD DUP1 SWAP2 SUB SWAP1 REVERT JUMPDEST PUSH1 0x0 CALLER SWAP1 DUP1 PUSH1 0x1 DUP2 SLOAD ADD DUP1 DUP3 SSTORE DUP1 SWAP2 POP POP PUSH1 0x1 SWAP1 SUB SWAP1 PUSH1 0x0 MSTORE PUSH1 0x20 PUSH1 0x0 KECCAK256 ADD PUSH1 0x0 SWAP1 SWAP2 SWAP1 SWAP2 SWAP1 SWAP2 PUSH2 0x100 EXP DUP2 SLOAD DUP2 PUSH20 0xFFFFFFFFFFFFFFFFFFFFFFFFFFFFFFFFFFFFFFFF MUL NOT AND SWAP1 DUP4 PUSH20 0xFFFFFFFFFFFFFFFFFFFFFFFFFFFFFFFFFFFFFFFF AND MUL OR SWAP1 SSTORE POP CALLER PUSH20 0xFFFFFFFFFFFFFFFFFFFFFFFFFFFFFFFFFFFFFFFF AND PUSH32 0x1D64FB5BA9F2548C5B98468D58F25B87B9E866AFEE0122E92D9FE722BF85076C PUSH1 0x40 MLOAD PUSH1 0x40 MLOAD DUP1 SWAP2 SUB SWAP1 LOG2 JUMP JUMPDEST PUSH1 0x0 PUSH32 0x0 SWAP1 POP SWAP1 JUMP JUMPDEST PUSH1 0x0 PUSH1 0x2 SLOAD SWAP1 POP SWAP1 JUMP JUMPDEST PUSH1 0x0 DUP1 DUP1 SLOAD SWAP1 POP SWAP1 POP SWAP1 JUMP JUMPDEST PUSH1 0x0 DUP1 DUP1 SLOAD SWAP1 POP DUP3 PUSH1 0x0 DUP2 MLOAD DUP2 LT PUSH2 0x8EF JUMPI PUSH2 0x8EE PUSH2 0x13CB JUMP JUMPDEST JUMPDEST PUSH1 0x20 MUL PUSH1 0x20 ADD ADD MLOAD PUSH2 0x901 SWAP2 SWAP1 PUSH2 0x130D JUMP JUMPDEST SWAP1 POP PUSH1 0x0 DUP1 DUP3 DUP2 SLOAD DUP2 LT PUSH2 0x918 JUMPI PUSH2 0x917 PUSH2 0x13CB JUMP JUMPDEST JUMPDEST SWAP1 PUSH1 0x0 MSTORE PUSH1 0x20 PUSH1 0x0 KECCAK256 ADD PUSH1 0x0 SWAP1 SLOAD SWAP1 PUSH2 0x100 EXP SWAP1 DIV PUSH20 0xFFFFFFFFFFFFFFFFFFFFFFFFFFFFFFFFFFFFFFFF AND SWAP1 POP DUP1 PUSH1 0x1 PUSH1 0x0 PUSH2 0x100 EXP DUP2 SLOAD DUP2 PUSH20 0xFFFFFFFFFFFFFFFFFFFFFFFFFFFFFFFFFFFFFFFF MUL NOT AND SWAP1 DUP4 PUSH20 0xFFFFFFFFFFFFFFFFFFFFFFFFFFFFFFFFFFFFFFFF AND MUL OR SWAP1 SSTORE POP PUSH1 0x0 DUP2 PUSH20 0xFFFFFFFFFFFFFFFFFFFFFFFFFFFFFFFFFFFFFFFF AND SELFBALANCE PUSH1 0x40 MLOAD PUSH2 0x9AC SWAP1 PUSH2 0xF8D JUMP JUMPDEST PUSH1 0x0 PUSH1 0x40 MLOAD DUP1 DUP4 SUB DUP2 DUP6 DUP8 GAS CALL SWAP3 POP POP POP RETURNDATASIZE DUP1 PUSH1 0x0 DUP2 EQ PUSH2 0x9E9 JUMPI PUSH1 0x40 MLOAD SWAP2 POP PUSH1 0x1F NOT PUSH1 0x3F RETURNDATASIZE ADD AND DUP3 ADD PUSH1 0x40 MSTORE RETURNDATASIZE DUP3 MSTORE RETURNDATASIZE PUSH1 0x0 PUSH1 0x20 DUP5 ADD RETURNDATACOPY PUSH2 0x9EE JUMP JUMPDEST PUSH1 0x60 SWAP2 POP JUMPDEST POP POP SWAP1 POP DUP1 PUSH2 0xA29 JUMPI PUSH1 0x40 MLOAD PUSH32 0xE3DB163900000000000000000000000000000000000000000000000000000000 DUP2 MSTORE PUSH1 0x4 ADD PUSH1 0x40 MLOAD DUP1 SWAP2 SUB SWAP1 REVERT JUMPDEST PUSH1 0x0 PUSH1 0x1 PUSH1 0x14 PUSH2 0x100 EXP DUP2 SLOAD DUP2 PUSH1 0xFF MUL NOT AND SWAP1 DUP4 PUSH1 0x1 DUP2 GT ISZERO PUSH2 0xA4F JUMPI PUSH2 0xA4E PUSH2 0x139C JUMP JUMPDEST JUMPDEST MUL OR SWAP1 SSTORE POP PUSH1 0x0 PUSH8 0xFFFFFFFFFFFFFFFF DUP2 GT ISZERO PUSH2 0xA6F JUMPI PUSH2 0xA6E PUSH2 0x13FA JUMP JUMPDEST JUMPDEST PUSH1 0x40 MLOAD SWAP1 DUP1 DUP3 MSTORE DUP1 PUSH1 0x20 MUL PUSH1 0x20 ADD DUP3 ADD PUSH1 0x40 MSTORE DUP1 ISZERO PUSH2 0xA9D JUMPI DUP2 PUSH1 0x20 ADD PUSH1 0x20 DUP3 MUL DUP1 CALLDATASIZE DUP4 CALLDATACOPY DUP1 DUP3 ADD SWAP2 POP POP SWAP1 POP JUMPDEST POP PUSH1 0x0 SWAP1 DUP1 MLOAD SWAP1 PUSH1 0x20 ADD SWAP1 PUSH2 0xAB3 SWAP3 SWAP2 SWAP1 PUSH2 0xB05 JUMP JUMPDEST POP TIMESTAMP PUSH1 0x2 DUP2 SWAP1 SSTORE POP DUP2 PUSH20 0xFFFFFFFFFFFFFFFFFFFFFFFFFFFFFFFFFFFFFFFF AND PUSH32 0x5B690EC4A06FE979403046EAEEA5B3CE38524683C3001F662C8B5A829632F7DF PUSH1 0x40 MLOAD PUSH1 0x40 MLOAD DUP1 SWAP2 SUB SWAP1 LOG2 POP POP POP POP POP JUMP JUMPDEST DUP3 DUP1 SLOAD DUP3 DUP3 SSTORE SWAP1 PUSH1 0x0 MSTORE PUSH1 0x20 PUSH1 0x0 KECCAK256 SWAP1 DUP2 ADD SWAP3 DUP3 ISZERO PUSH2 0xB7E JUMPI SWAP2 PUSH1 0x20 MUL DUP3 ADD JUMPDEST DUP3 DUP2 GT ISZERO PUSH2 0xB7D JUMPI DUP3 MLOAD DUP3 PUSH1 0x0 PUSH2 0x100 EXP DUP2 SLOAD DUP2 PUSH20 0xFFFFFFFFFFFFFFFFFFFFFFFFFFFFFFFFFFFFFFFF MUL NOT AND SWAP1 DUP4 PUSH20 0xFFFFFFFFFFFFFFFFFFFFFFFFFFFFFFFFFFFFFFFF AND MUL OR SWAP1 SSTORE POP SWAP2 PUSH1 0x20 ADD SWAP2 SWAP1 PUSH1 0x1 ADD SWAP1 PUSH2 0xB25 JUMP JUMPDEST JUMPDEST POP SWAP1 POP PUSH2 0xB8B SWAP2 SWAP1 PUSH2 0xB8F JUMP JUMPDEST POP SWAP1 JUMP JUMPDEST JUMPDEST DUP1 DUP3 GT ISZERO PUSH2 0xBA8 JUMPI PUSH1 0x0 DUP2 PUSH1 0x0 SWAP1 SSTORE POP PUSH1 0x1 ADD PUSH2 0xB90 JUMP JUMPDEST POP SWAP1 JUMP JUMPDEST PUSH1 0x0 PUSH2 0xBBF PUSH2 0xBBA DUP5 PUSH2 0x1116 JUMP JUMPDEST PUSH2 0x10F1 JUMP JUMPDEST SWAP1 POP DUP1 DUP4 DUP3 MSTORE PUSH1 0x20 DUP3 ADD SWAP1 POP DUP3 DUP6 PUSH1 0x20 DUP7 MUL DUP3 ADD GT ISZERO PUSH2 0xBE2 JUMPI PUSH2 0xBE1 PUSH2 0x1433 JUMP JUMPDEST JUMPDEST PUSH1 0x0 JUMPDEST DUP6 DUP2 LT ISZERO PUSH2 0xC12 JUMPI DUP2 PUSH2 0xBF8 DUP9 DUP3 PUSH2 0xD10 JUMP JUMPDEST DUP5 MSTORE PUSH1 0x20 DUP5 ADD SWAP4 POP PUSH1 0x20 DUP4 ADD SWAP3 POP POP PUSH1 0x1 DUP2 ADD SWAP1 POP PUSH2 0xBE5 JUMP JUMPDEST POP POP POP SWAP4 SWAP3 POP POP POP JUMP JUMPDEST PUSH1 0x0 PUSH2 0xC2F PUSH2 0xC2A DUP5 PUSH2 0x1142 JUMP JUMPDEST PUSH2 0x10F1 JUMP JUMPDEST SWAP1 POP DUP3 DUP2 MSTORE PUSH1 0x20 DUP2 ADD DUP5 DUP5 DUP5 ADD GT ISZERO PUSH2 0xC4B JUMPI PUSH2 0xC4A PUSH2 0x1438 JUMP JUMPDEST JUMPDEST PUSH2 0xC56 DUP5 DUP3 DUP6 PUSH2 0x129A JUMP JUMPDEST POP SWAP4 SWAP3 POP POP POP JUMP JUMPDEST PUSH1 0x0 DUP3 PUSH1 0x1F DUP4 ADD SLT PUSH2 0xC73 JUMPI PUSH2 0xC72 PUSH2 0x142E JUMP JUMPDEST JUMPDEST DUP2 CALLDATALOAD PUSH2 0xC83 DUP5 DUP3 PUSH1 0x20 DUP7 ADD PUSH2 0xBAC JUMP JUMPDEST SWAP2 POP POP SWAP3 SWAP2 POP POP JUMP JUMPDEST PUSH1 0x0 DUP1 DUP4 PUSH1 0x1F DUP5 ADD SLT PUSH2 0xCA2 JUMPI PUSH2 0xCA1 PUSH2 0x142E JUMP JUMPDEST JUMPDEST DUP3 CALLDATALOAD SWAP1 POP PUSH8 0xFFFFFFFFFFFFFFFF DUP2 GT ISZERO PUSH2 0xCBF JUMPI PUSH2 0xCBE PUSH2 0x1429 JUMP JUMPDEST JUMPDEST PUSH1 0x20 DUP4 ADD SWAP2 POP DUP4 PUSH1 0x1 DUP3 MUL DUP4 ADD GT ISZERO PUSH2 0xCDB JUMPI PUSH2 0xCDA PUSH2 0x1433 JUMP JUMPDEST JUMPDEST SWAP3 POP SWAP3 SWAP1 POP JUMP JUMPDEST PUSH1 0x0 DUP3 PUSH1 0x1F DUP4 ADD SLT PUSH2 0xCF7 JUMPI PUSH2 0xCF6 PUSH2 0x142E JUMP JUMPDEST JUMPDEST DUP2 CALLDATALOAD PUSH2 0xD07 DUP5 DUP3 PUSH1 0x20 DUP7 ADD PUSH2 0xC1C JUMP JUMPDEST SWAP2 POP POP SWAP3 SWAP2 POP POP JUMP JUMPDEST PUSH1 0x0 DUP2 CALLDATALOAD SWAP1 POP PUSH2 0xD1F DUP2 PUSH2 0x146F JUMP JUMPDEST SWAP3 SWAP2 POP POP JUMP JUMPDEST PUSH1 0x0 DUP2 MLOAD SWAP1 POP PUSH2 0xD34 DUP2 PUSH2 0x146F JUMP JUMPDEST SWAP3 SWAP2 POP POP JUMP JUMPDEST PUSH1 0x0 DUP2 CALLDATALOAD SWAP1 POP PUSH2 0xD49 DUP2 PUSH2 0x1486 JUMP JUMPDEST SWAP3 SWAP2 POP POP JUMP JUMPDEST PUSH1 0x0 DUP1 PUSH1 0x20 DUP4 DUP6 SUB SLT ISZERO PUSH2 0xD66 JUMPI PUSH2 0xD65 PUSH2 0x1442 JUMP JUMPDEST JUMPDEST PUSH1 0x0 DUP4 ADD CALLDATALOAD PUSH8 0xFFFFFFFFFFFFFFFF DUP2 GT ISZERO PUSH2 0xD84 JUMPI PUSH2 0xD83 PUSH2 0x143D JUMP JUMPDEST JUMPDEST PUSH2 0xD90 DUP6 DUP3 DUP7 ADD PUSH2 0xC8C JUMP JUMPDEST SWAP3 POP SWAP3 POP POP SWAP3 POP SWAP3 SWAP1 POP JUMP JUMPDEST PUSH1 0x0 PUSH1 0x20 DUP3 DUP5 SUB SLT ISZERO PUSH2 0xDB2 JUMPI PUSH2 0xDB1 PUSH2 0x1442 JUMP JUMPDEST JUMPDEST PUSH1 0x0 DUP3 ADD CALLDATALOAD PUSH8 0xFFFFFFFFFFFFFFFF DUP2 GT ISZERO PUSH2 0xDD0 JUMPI PUSH2 0xDCF PUSH2 0x143D JUMP JUMPDEST JUMPDEST PUSH2 0xDDC DUP5 DUP3 DUP6 ADD PUSH2 0xCE2 JUMP JUMPDEST SWAP2 POP POP SWAP3 SWAP2 POP POP JUMP JUMPDEST PUSH1 0x0 PUSH1 0x20 DUP3 DUP5 SUB SLT ISZERO PUSH2 0xDFB JUMPI PUSH2 0xDFA PUSH2 0x1442 JUMP JUMPDEST JUMPDEST PUSH1 0x0 PUSH2 0xE09 DUP5 DUP3 DUP6 ADD PUSH2 0xD25 JUMP JUMPDEST SWAP2 POP POP SWAP3 SWAP2 POP POP JUMP JUMPDEST PUSH1 0x0 DUP1 PUSH1 0x40 DUP4 DUP6 SUB SLT ISZERO PUSH2 0xE29 JUMPI PUSH2 0xE28 PUSH2 0x1442 JUMP JUMPDEST JUMPDEST PUSH1 0x0 PUSH2 0xE37 DUP6 DUP3 DUP7 ADD PUSH2 0xD10 JUMP JUMPDEST SWAP3 POP POP PUSH1 0x20 DUP4 ADD CALLDATALOAD PUSH8 0xFFFFFFFFFFFFFFFF DUP2 GT ISZERO PUSH2 0xE58 JUMPI PUSH2 0xE57 PUSH2 0x143D JUMP JUMPDEST JUMPDEST PUSH2 0xE64 DUP6 DUP3 DUP7 ADD PUSH2 0xC5E JUMP JUMPDEST SWAP2 POP POP SWAP3 POP SWAP3 SWAP1 POP JUMP JUMPDEST PUSH1 0x0 PUSH1 0x20 DUP3 DUP5 SUB SLT ISZERO PUSH2 0xE84 JUMPI PUSH2 0xE83 PUSH2 0x1442 JUMP JUMPDEST JUMPDEST PUSH1 0x0 PUSH2 0xE92 DUP5 DUP3 DUP6 ADD PUSH2 0xD3A JUMP JUMPDEST SWAP2 POP POP SWAP3 SWAP2 POP POP JUMP JUMPDEST PUSH2 0xEA4 DUP2 PUSH2 0x11CE JUMP JUMPDEST DUP3 MSTORE POP POP JUMP JUMPDEST PUSH2 0xEB3 DUP2 PUSH2 0x11E0 JUMP JUMPDEST DUP3 MSTORE POP POP JUMP JUMPDEST PUSH2 0xEC2 DUP2 PUSH2 0x11EC JUMP JUMPDEST DUP3 MSTORE POP POP JUMP JUMPDEST PUSH1 0x0 PUSH2 0xED3 DUP3 PUSH2 0x1173 JUMP JUMPDEST PUSH2 0xEDD DUP2 DUP6 PUSH2 0x117E JUMP JUMPDEST SWAP4 POP PUSH2 0xEED DUP2 DUP6 PUSH1 0x20 DUP7 ADD PUSH2 0x12A9 JUMP JUMPDEST PUSH2 0xEF6 DUP2 PUSH2 0x1447 JUMP JUMPDEST DUP5 ADD SWAP2 POP POP SWAP3 SWAP2 POP POP JUMP JUMPDEST PUSH2 0xF0A DUP2 PUSH2 0x1264 JUMP JUMPDEST DUP3 MSTORE POP POP JUMP JUMPDEST PUSH1 0x0 PUSH2 0xF1D PUSH1 0x0 DUP4 PUSH2 0x118F JUMP JUMPDEST SWAP2 POP PUSH2 0xF28 DUP3 PUSH2 0x1458 JUMP JUMPDEST PUSH1 0x0 DUP3 ADD SWAP1 POP SWAP2 SWAP1 POP JUMP JUMPDEST PUSH2 0xF3C DUP2 PUSH2 0x1229 JUMP JUMPDEST DUP3 MSTORE POP POP JUMP JUMPDEST PUSH2 0xF4B DUP2 PUSH2 0x1233 JUMP JUMPDEST DUP3 MSTORE POP POP JUMP JUMPDEST PUSH2 0xF5A DUP2 PUSH2 0x1243 JUMP JUMPDEST DUP3 MSTORE POP POP JUMP JUMPDEST PUSH2 0xF69 DUP2 PUSH2 0x1276 JUMP JUMPDEST DUP3 MSTORE POP POP JUMP JUMPDEST PUSH2 0xF78 DUP2 PUSH2 0x1288 JUMP JUMPDEST DUP3 MSTORE POP POP JUMP JUMPDEST PUSH2 0xF87 DUP2 PUSH2 0x1257 JUMP JUMPDEST DUP3 MSTORE POP POP JUMP JUMPDEST PUSH1 0x0 PUSH2 0xF98 DUP3 PUSH2 0xF10 JUMP JUMPDEST SWAP2 POP DUP2 SWAP1 POP SWAP2 SWAP1 POP JUMP JUMPDEST PUSH1 0x0 PUSH1 0x20 DUP3 ADD SWAP1 POP PUSH2 0xFB7 PUSH1 0x0 DUP4 ADD DUP5 PUSH2 0xE9B JUMP JUMPDEST SWAP3 SWAP2 POP POP JUMP JUMPDEST PUSH1 0x0 PUSH1 0x40 DUP3 ADD SWAP1 POP PUSH2 0xFD2 PUSH1 0x0 DUP4 ADD DUP6 PUSH2 0xE9B JUMP JUMPDEST PUSH2 0xFDF PUSH1 0x20 DUP4 ADD DUP5 PUSH2 0xE9B JUMP JUMPDEST SWAP4 SWAP3 POP POP POP JUMP JUMPDEST PUSH1 0x0 PUSH1 0x40 DUP3 ADD SWAP1 POP PUSH2 0xFFB PUSH1 0x0 DUP4 ADD DUP6 PUSH2 0xEAA JUMP JUMPDEST DUP2 DUP2 SUB PUSH1 0x20 DUP4 ADD MSTORE PUSH2 0x100D DUP2 DUP5 PUSH2 0xEC8 JUMP JUMPDEST SWAP1 POP SWAP4 SWAP3 POP POP POP JUMP JUMPDEST PUSH1 0x0 PUSH1 0xA0 DUP3 ADD SWAP1 POP PUSH2 0x102B PUSH1 0x0 DUP4 ADD DUP9 PUSH2 0xEB9 JUMP JUMPDEST PUSH2 0x1038 PUSH1 0x20 DUP4 ADD DUP8 PUSH2 0xF51 JUMP JUMPDEST PUSH2 0x1045 PUSH1 0x40 DUP4 ADD DUP7 PUSH2 0xF60 JUMP JUMPDEST PUSH2 0x1052 PUSH1 0x60 DUP4 ADD DUP6 PUSH2 0xF42 JUMP JUMPDEST PUSH2 0x105F PUSH1 0x80 DUP4 ADD DUP5 PUSH2 0xF6F JUMP JUMPDEST SWAP7 SWAP6 POP POP POP POP POP POP JUMP JUMPDEST PUSH1 0x0 PUSH1 0x20 DUP3 ADD SWAP1 POP PUSH2 0x107E PUSH1 0x0 DUP4 ADD DUP5 PUSH2 0xF01 JUMP JUMPDEST SWAP3 SWAP2 POP POP JUMP JUMPDEST PUSH1 0x0 PUSH1 0x20 DUP3 ADD SWAP1 POP PUSH2 0x1099 PUSH1 0x0 DUP4 ADD DUP5 PUSH2 0xF33 JUMP JUMPDEST SWAP3 SWAP2 POP POP JUMP JUMPDEST PUSH1 0x0 PUSH1 0x60 DUP3 ADD SWAP1 POP PUSH2 0x10B4 PUSH1 0x0 DUP4 ADD DUP7 PUSH2 0xF33 JUMP JUMPDEST PUSH2 0x10C1 PUSH1 0x20 DUP4 ADD DUP6 PUSH2 0xF33 JUMP JUMPDEST PUSH2 0x10CE PUSH1 0x40 DUP4 ADD DUP5 PUSH2 0xF33 JUMP JUMPDEST SWAP5 SWAP4 POP POP POP POP JUMP JUMPDEST PUSH1 0x0 PUSH1 0x20 DUP3 ADD SWAP1 POP PUSH2 0x10EB PUSH1 0x0 DUP4 ADD DUP5 PUSH2 0xF7E JUMP JUMPDEST SWAP3 SWAP2 POP POP JUMP JUMPDEST PUSH1 0x0 PUSH2 0x10FB PUSH2 0x110C JUMP JUMPDEST SWAP1 POP PUSH2 0x1107 DUP3 DUP3 PUSH2 0x12DC JUMP JUMPDEST SWAP2 SWAP1 POP JUMP JUMPDEST PUSH1 0x0 PUSH1 0x40 MLOAD SWAP1 POP SWAP1 JUMP JUMPDEST PUSH1 0x0 PUSH8 0xFFFFFFFFFFFFFFFF DUP3 GT ISZERO PUSH2 0x1131 JUMPI PUSH2 0x1130 PUSH2 0x13FA JUMP JUMPDEST JUMPDEST PUSH1 0x20 DUP3 MUL SWAP1 POP PUSH1 0x20 DUP2 ADD SWAP1 POP SWAP2 SWAP1 POP JUMP JUMPDEST PUSH1 0x0 PUSH8 0xFFFFFFFFFFFFFFFF DUP3 GT ISZERO PUSH2 0x115D JUMPI PUSH2 0x115C PUSH2 0x13FA JUMP JUMPDEST JUMPDEST PUSH2 0x1166 DUP3 PUSH2 0x1447 JUMP JUMPDEST SWAP1 POP PUSH1 0x20 DUP2 ADD SWAP1 POP SWAP2 SWAP1 POP JUMP JUMPDEST PUSH1 0x0 DUP2 MLOAD SWAP1 POP SWAP2 SWAP1 POP JUMP JUMPDEST PUSH1 0x0 DUP3 DUP3 MSTORE PUSH1 0x20 DUP3 ADD SWAP1 POP SWAP3 SWAP2 POP POP JUMP JUMPDEST PUSH1 0x0 DUP2 SWAP1 POP SWAP3 SWAP2 POP POP JUMP JUMPDEST PUSH1 0x0 PUSH2 0x11A5 DUP3 PUSH2 0x1229 JUMP JUMPDEST SWAP2 POP PUSH2 0x11B0 DUP4 PUSH2 0x1229 JUMP JUMPDEST SWAP3 POP DUP3 DUP3 LT ISZERO PUSH2 0x11C3 JUMPI PUSH2 0x11C2 PUSH2 0x133E JUMP JUMPDEST JUMPDEST DUP3 DUP3 SUB SWAP1 POP SWAP3 SWAP2 POP POP JUMP JUMPDEST PUSH1 0x0 PUSH2 0x11D9 DUP3 PUSH2 0x1209 JUMP JUMPDEST SWAP1 POP SWAP2 SWAP1 POP JUMP JUMPDEST PUSH1 0x0 DUP2 ISZERO ISZERO SWAP1 POP SWAP2 SWAP1 POP JUMP JUMPDEST PUSH1 0x0 DUP2 SWAP1 POP SWAP2 SWAP1 POP JUMP JUMPDEST PUSH1 0x0 DUP2 SWAP1 POP PUSH2 0x1204 DUP3 PUSH2 0x145B JUMP JUMPDEST SWAP2 SWAP1 POP JUMP JUMPDEST PUSH1 0x0 PUSH20 0xFFFFFFFFFFFFFFFFFFFFFFFFFFFFFFFFFFFFFFFF DUP3 AND SWAP1 POP SWAP2 SWAP1 POP JUMP JUMPDEST PUSH1 0x0 DUP2 SWAP1 POP SWAP2 SWAP1 POP JUMP JUMPDEST PUSH1 0x0 PUSH4 0xFFFFFFFF DUP3 AND SWAP1 POP SWAP2 SWAP1 POP JUMP JUMPDEST PUSH1 0x0 PUSH8 0xFFFFFFFFFFFFFFFF DUP3 AND SWAP1 POP SWAP2 SWAP1 POP JUMP JUMPDEST PUSH1 0x0 PUSH1 0xFF DUP3 AND SWAP1 POP SWAP2 SWAP1 POP JUMP JUMPDEST PUSH1 0x0 PUSH2 0x126F DUP3 PUSH2 0x11F6 JUMP JUMPDEST SWAP1 POP SWAP2 SWAP1 POP JUMP JUMPDEST PUSH1 0x0 PUSH2 0x1281 DUP3 PUSH2 0x1257 JUMP JUMPDEST SWAP1 POP SWAP2 SWAP1 POP JUMP JUMPDEST PUSH1 0x0 PUSH2 0x1293 DUP3 PUSH2 0x1257 JUMP JUMPDEST SWAP1 POP SWAP2 SWAP1 POP JUMP JUMPDEST DUP3 DUP2 DUP4 CALLDATACOPY PUSH1 0x0 DUP4 DUP4 ADD MSTORE POP POP POP JUMP JUMPDEST PUSH1 0x0 JUMPDEST DUP4 DUP2 LT ISZERO PUSH2 0x12C7 JUMPI DUP1 DUP3 ADD MLOAD DUP2 DUP5 ADD MSTORE PUSH1 0x20 DUP2 ADD SWAP1 POP PUSH2 0x12AC JUMP JUMPDEST DUP4 DUP2 GT ISZERO PUSH2 0x12D6 JUMPI PUSH1 0x0 DUP5 DUP5 ADD MSTORE JUMPDEST POP POP POP POP JUMP JUMPDEST PUSH2 0x12E5 DUP3 PUSH2 0x1447 JUMP JUMPDEST DUP2 ADD DUP2 DUP2 LT PUSH8 0xFFFFFFFFFFFFFFFF DUP3 GT OR ISZERO PUSH2 0x1304 JUMPI PUSH2 0x1303 PUSH2 0x13FA JUMP JUMPDEST JUMPDEST DUP1 PUSH1 0x40 MSTORE POP POP POP JUMP JUMPDEST PUSH1 0x0 PUSH2 0x1318 DUP3 PUSH2 0x1229 JUMP JUMPDEST SWAP2 POP PUSH2 0x1323 DUP4 PUSH2 0x1229 JUMP JUMPDEST SWAP3 POP DUP3 PUSH2 0x1333 JUMPI PUSH2 0x1332 PUSH2 0x136D JUMP JUMPDEST JUMPDEST DUP3 DUP3 MOD SWAP1 POP SWAP3 SWAP2 POP POP JUMP JUMPDEST PUSH32 0x4E487B7100000000000000000000000000000000000000000000000000000000 PUSH1 0x0 MSTORE PUSH1 0x11 PUSH1 0x4 MSTORE PUSH1 0x24 PUSH1 0x0 REVERT JUMPDEST PUSH32 0x4E487B7100000000000000000000000000000000000000000000000000000000 PUSH1 0x0 MSTORE PUSH1 0x12 PUSH1 0x4 MSTORE PUSH1 0x24 PUSH1 0x0 REVERT JUMPDEST PUSH32 0x4E487B7100000000000000000000000000000000000000000000000000000000 PUSH1 0x0 MSTORE PUSH1 0x21 PUSH1 0x4 MSTORE PUSH1 0x24 PUSH1 0x0 REVERT JUMPDEST PUSH32 0x4E487B7100000000000000000000000000000000000000000000000000000000 PUSH1 0x0 MSTORE PUSH1 0x32 PUSH1 0x4 MSTORE PUSH1 0x24 PUSH1 0x0 REVERT JUMPDEST PUSH32 0x4E487B7100000000000000000000000000000000000000000000000000000000 PUSH1 0x0 MSTORE PUSH1 0x41 PUSH1 0x4 MSTORE PUSH1 0x24 PUSH1 0x0 REVERT JUMPDEST PUSH1 0x0 DUP1 REVERT JUMPDEST PUSH1 0x0 DUP1 REVERT JUMPDEST PUSH1 0x0 DUP1 REVERT JUMPDEST PUSH1 0x0 DUP1 REVERT JUMPDEST PUSH1 0x0 DUP1 REVERT JUMPDEST PUSH1 0x0 DUP1 REVERT JUMPDEST PUSH1 0x0 PUSH1 0x1F NOT PUSH1 0x1F DUP4 ADD AND SWAP1 POP SWAP2 SWAP1 POP JUMP JUMPDEST POP JUMP JUMPDEST PUSH1 0x2 DUP2 LT PUSH2 0x146C JUMPI PUSH2 0x146B PUSH2 0x139C JUMP JUMPDEST JUMPDEST POP JUMP JUMPDEST PUSH2 0x1478 DUP2 PUSH2 0x1229 JUMP JUMPDEST DUP2 EQ PUSH2 0x1483 JUMPI PUSH1 0x0 DUP1 REVERT JUMPDEST POP JUMP JUMPDEST PUSH2 0x148F DUP2 PUSH2 0x1257 JUMP JUMPDEST DUP2 EQ PUSH2 0x149A JUMPI PUSH1 0x0 DUP1 REVERT JUMPDEST POP JUMP INVALID LOG2 PUSH5 0x6970667358 0x22 SLT KECCAK256 0xDD 0xBD MSTORE DUP7 KECCAK256 0xD4 KECCAK256 LOG2 0xCC POP 0xBD 0xAF 0xC8 0xD7 0xD2 DUP3 DUP3 0xCD LOG0 CREATE DUP9 MSTORE GT EXTCODEHASH PUSH32 0x2BFE4D0396037E64736F6C634300080700330000000000000000000000000000 "},"gasEstimates":{"creation":{"codeDepositCost":"1066200","executionCost":"infinite","totalCost":"infinite"},"external":{"checkUpkeep(bytes)":"infinite","enterLottery()":"infinite","getEntryFee()":"infinite","getInterval()":"infinite","getLatestTimestamp()":"2503","getLotteryState()":"2641","getNumWords()":"432","getNumberOfPlayers()":"2533","getPlayer(uint8)":"5002","getRecentWinner()":"2589","getRequestConfirmations()":"454","performUpkeep(bytes)":"infinite","rawFulfillRandomWords(uint256,uint256[])":"infinite"},"internal":{"fulfillRandomWords(uint256,uint256[] memory)":"infinite"}},"methodIdentifiers":{"checkUpkeep(bytes)":"6e04ff0d","enterLottery()":"c1af5785","getEntryFee()":"e586a4f0","getInterval()":"91ad27b4","getLatestTimestamp()":"f43b52cb","getLotteryState()":"6b68c03c","getNumWords()":"53a2c19a","getNumberOfPlayers()":"fd6673f5","getPlayer(uint8)":"39fddff6","getRecentWinner()":"473f1ddc","getRequestConfirmations()":"5f1b0fd8","performUpkeep(bytes)":"4585e33b","rawFulfillRandomWords(uint256,uint256[])":"1fe543e3"}},"storageLayout":{"storage":[{"astId":1431,"contract":"contracts/lottery.sol:Lottery","label":"s_players","offset":0,"slot":"0","type":"t_array(t_address_payable)dyn_storage"},{"astId":1448,"contract":"contracts/lottery.sol:Lottery","label":"s_recentWinner","offset":0,"slot":"1","type":"t_address"},{"astId":1451,"contract":"contracts/lottery.sol:Lottery","label":"s_lotteryState","offset":20,"slot":"1","type":"t_enum(LotteryState)1426"},{"astId":1455,"contract":"contracts/lottery.sol:Lottery","label":"s_lastTimeStamp","offset":0,"slot":"2","type":"t_uint256"}],"types":{"t_address":{"encoding":"inplace","label":"address","numberOfBytes":"20"},"t_address_payable":{"encoding":"inplace","label":"address payable","numberOfBytes":"20"},"t_array(t_address_payable)dyn_storage":{"base":"t_address_payable","encoding":"dynamic_array","label":"address payable[]","numberOfBytes":"32"},"t_enum(LotteryState)1426":{"encoding":"inplace","label":"enum Lottery.LotteryState","numberOfBytes":"1"},"t_uint256":{"encoding":"inplace","label":"uint256","numberOfBytes":"32"}}},"userdoc":{"kind":"user","methods":{},"notice":"This contract is a decentralized untamperable lottery smart contract","version":1}}}}