{
  "_format": "hh-sol-artifact-1",
  "contractName": "Lottery",
  "sourceName": "contracts/lottery.sol",
  "abi": [
    {
      "inputs": [
        {
          "internalType": "address",
          "name": "vrfCoordinatorV2",
          "type": "address"
        },
        {
          "internalType": "uint256",
          "name": "entranceFee",
          "type": "uint256"
        },
        {
          "internalType": "bytes32",
          "name": "keyHash",
          "type": "bytes32"
        },
        {
          "internalType": "uint64",
          "name": "subscriptionId",
          "type": "uint64"
        },
        {
          "internalType": "uint32",
          "name": "callbackGasLimit",
          "type": "uint32"
        },
        {
          "internalType": "uint256",
          "name": "interval",
          "type": "uint256"
        }
      ],
      "stateMutability": "nonpayable",
      "type": "constructor"
    },
    {
      "inputs": [],
      "name": "Lottery__Closed",
      "type": "error"
    },
    {
      "inputs": [],
      "name": "Lottery__NotEnoughETHEntered",
      "type": "error"
    },
    {
      "inputs": [],
      "name": "Lottery__WithdrawCallFailed",
      "type": "error"
    },
    {
      "inputs": [
        {
          "internalType": "uint256",
          "name": "currBalance",
          "type": "uint256"
        },
        {
          "internalType": "uint256",
          "name": "players",
          "type": "uint256"
        },
        {
          "internalType": "uint256",
          "name": "lotteryState",
          "type": "uint256"
        }
      ],
      "name": "Lottery__noUpkeepNeeded",
      "type": "error"
    },
    {
      "inputs": [
        {
          "internalType": "address",
          "name": "have",
          "type": "address"
        },
        {
          "internalType": "address",
          "name": "want",
          "type": "address"
        }
      ],
      "name": "OnlyCoordinatorCanFulfill",
      "type": "error"
    },
    {
      "anonymous": false,
      "inputs": [
        {
          "indexed": true,
          "internalType": "address",
          "name": "player",
          "type": "address"
        }
      ],
      "name": "LotteryEnter",
      "type": "event"
    },
    {
      "anonymous": false,
      "inputs": [
        {
          "indexed": true,
          "internalType": "uint256",
          "name": "requestId",
          "type": "uint256"
        }
      ],
      "name": "RequestedLotteryWinner",
      "type": "event"
    },
    {
      "anonymous": false,
      "inputs": [
        {
          "indexed": true,
          "internalType": "address",
          "name": "winner",
          "type": "address"
        }
      ],
      "name": "WinnerPicked",
      "type": "event"
    },
    {
      "inputs": [
        {
          "internalType": "bytes",
          "name": "",
          "type": "bytes"
        }
      ],
      "name": "checkUpkeep",
      "outputs": [
        {
          "internalType": "bool",
          "name": "upkeep",
          "type": "bool"
        },
        {
          "internalType": "bytes",
          "name": "",
          "type": "bytes"
        }
      ],
      "stateMutability": "view",
      "type": "function"
    },
    {
      "inputs": [],
      "name": "enterLottery",
      "outputs": [],
      "stateMutability": "payable",
      "type": "function"
    },
    {
      "inputs": [],
      "name": "getBlockTimestamp",
      "outputs": [
        {
          "internalType": "uint256",
          "name": "",
          "type": "uint256"
        }
      ],
      "stateMutability": "view",
      "type": "function"
    },
    {
      "inputs": [],
      "name": "getEntryFee",
      "outputs": [
        {
          "internalType": "uint256",
          "name": "",
          "type": "uint256"
        }
      ],
      "stateMutability": "view",
      "type": "function"
    },
    {
      "inputs": [],
      "name": "getInterval",
      "outputs": [
        {
          "internalType": "uint256",
          "name": "",
          "type": "uint256"
        }
      ],
      "stateMutability": "view",
      "type": "function"
    },
    {
      "inputs": [],
      "name": "getLatestTimestamp",
      "outputs": [
        {
          "internalType": "uint256",
          "name": "",
          "type": "uint256"
        }
      ],
      "stateMutability": "view",
      "type": "function"
    },
    {
      "inputs": [],
      "name": "getLotteryState",
      "outputs": [
        {
          "internalType": "enum Lottery.LotteryState",
          "name": "",
          "type": "uint8"
        }
      ],
      "stateMutability": "view",
      "type": "function"
    },
    {
      "inputs": [],
      "name": "getNumWords",
      "outputs": [
        {
          "internalType": "uint8",
          "name": "",
          "type": "uint8"
        }
      ],
      "stateMutability": "pure",
      "type": "function"
    },
    {
      "inputs": [],
      "name": "getNumberOfPlayers",
      "outputs": [
        {
          "internalType": "uint256",
          "name": "",
          "type": "uint256"
        }
      ],
      "stateMutability": "view",
      "type": "function"
    },
    {
      "inputs": [
        {
          "internalType": "uint8",
          "name": "index",
          "type": "uint8"
        }
      ],
      "name": "getPlayer",
      "outputs": [
        {
          "internalType": "address",
          "name": "",
          "type": "address"
        }
      ],
      "stateMutability": "view",
      "type": "function"
    },
    {
      "inputs": [],
      "name": "getRecentWinner",
      "outputs": [
        {
          "internalType": "address",
          "name": "",
          "type": "address"
        }
      ],
      "stateMutability": "view",
      "type": "function"
    },
    {
      "inputs": [],
      "name": "getRequestConfirmations",
      "outputs": [
        {
          "internalType": "uint8",
          "name": "",
          "type": "uint8"
        }
      ],
      "stateMutability": "pure",
      "type": "function"
    },
    {
      "inputs": [
        {
          "internalType": "bytes",
          "name": "",
          "type": "bytes"
        }
      ],
      "name": "performUpkeep",
      "outputs": [],
      "stateMutability": "nonpayable",
      "type": "function"
    },
    {
      "inputs": [
        {
          "internalType": "uint256",
          "name": "requestId",
          "type": "uint256"
        },
        {
          "internalType": "uint256[]",
          "name": "randomWords",
          "type": "uint256[]"
        }
      ],
      "name": "rawFulfillRandomWords",
      "outputs": [],
      "stateMutability": "nonpayable",
      "type": "function"
    }
  ],
  "bytecode": "0x6101606040523480156200001257600080fd5b5060405162001908380380620019088339818101604052810190620000389190620001ad565b858073ffffffffffffffffffffffffffffffffffffffff1660808173ffffffffffffffffffffffffffffffffffffffff1660601b81525050508460a081815250508573ffffffffffffffffffffffffffffffffffffffff1660c08173ffffffffffffffffffffffffffffffffffffffff1660601b815250508360e081815250508267ffffffffffffffff166101008167ffffffffffffffff1660c01b815250508163ffffffff166101208163ffffffff1660e01b815250506000600160146101000a81548160ff02191690836001811115620001195762000118620002b5565b5b0217905550806101408181525050426002819055505050505050506200036b565b6000815190506200014b81620002e9565b92915050565b600081519050620001628162000303565b92915050565b60008151905062000179816200031d565b92915050565b600081519050620001908162000337565b92915050565b600081519050620001a78162000351565b92915050565b60008060008060008060c08789031215620001cd57620001cc620002e4565b5b6000620001dd89828a016200013a565b9650506020620001f089828a0162000168565b95505060406200020389828a0162000151565b94505060606200021689828a0162000196565b93505060806200022989828a016200017f565b92505060a06200023c89828a0162000168565b9150509295509295509295565b6000620002568262000267565b9050919050565b6000819050919050565b600073ffffffffffffffffffffffffffffffffffffffff82169050919050565b6000819050919050565b600063ffffffff82169050919050565b600067ffffffffffffffff82169050919050565b7f4e487b7100000000000000000000000000000000000000000000000000000000600052602160045260246000fd5b600080fd5b620002f48162000249565b81146200030057600080fd5b50565b6200030e816200025d565b81146200031a57600080fd5b50565b620003288162000287565b81146200033457600080fd5b50565b620003428162000291565b81146200034e57600080fd5b50565b6200035c81620002a1565b81146200036857600080fd5b50565b60805160601c60a05160c05160601c60e0516101005160c01c6101205160e01c61014051611521620003e7600039600081816106db01526107510152600061057d0152600061055a01526000610539015260006104fd01526000818161077701526108e801526000818161033e015261039201526115216000f3fe6080604052600436106100dd5760003560e01c80636e04ff0d1161007f578063c1af578511610059578063c1af5785146102b1578063e586a4f0146102bb578063f43b52cb146102e6578063fd6673f514610311576100dd565b80636e04ff0d1461021d578063796b89b91461025b57806391ad27b414610286576100dd565b8063473f1ddc116100bb578063473f1ddc1461017157806353a2c19a1461019c5780635f1b0fd8146101c75780636b68c03c146101f2576100dd565b80631fe543e3146100e257806339fddff61461010b5780634585e33b14610148575b600080fd5b3480156100ee57600080fd5b5061010960048036038101906101049190610e60565b61033c565b005b34801561011757600080fd5b50610132600480360381019061012d9190610ebc565b6103fc565b60405161013f9190610ff0565b60405180910390f35b34801561015457600080fd5b5061016f600480360381019061016a9190610d9d565b610446565b005b34801561017d57600080fd5b50610186610645565b6040516101939190610ff0565b60405180910390f35b3480156101a857600080fd5b506101b161066f565b6040516101be9190611124565b60405180910390f35b3480156101d357600080fd5b506101dc610678565b6040516101e99190611124565b60405180910390f35b3480156101fe57600080fd5b50610207610681565b60405161021491906110b7565b60405180910390f35b34801561022957600080fd5b50610244600480360381019061023f9190610dea565b610698565b604051610252929190611034565b60405180910390f35b34801561026757600080fd5b50610270610745565b60405161027d91906110d2565b60405180910390f35b34801561029257600080fd5b5061029b61074d565b6040516102a891906110d2565b60405180910390f35b6102b9610775565b005b3480156102c757600080fd5b506102d06108e4565b6040516102dd91906110d2565b60405180910390f35b3480156102f257600080fd5b506102fb61090c565b60405161030891906110d2565b60405180910390f35b34801561031d57600080fd5b50610326610916565b60405161033391906110d2565b60405180910390f35b7f000000000000000000000000000000000000000000000000000000000000000073ffffffffffffffffffffffffffffffffffffffff163373ffffffffffffffffffffffffffffffffffffffff16146103ee57337f00000000000000000000000000000000000000000000000000000000000000006040517f1cf993f40000000000000000000000000000000000000000000000000000000081526004016103e592919061100b565b60405180910390fd5b6103f88282610922565b5050565b6000808260ff168154811061041457610413611419565b5b9060005260206000200160009054906101000a900473ffffffffffffffffffffffffffffffffffffffff169050919050565b600061046060405180602001604052806000815250610698565b509050806104cf5747600080549050600160149054906101000a900460ff166001811115610491576104906113ea565b5b6040517f22e344be0000000000000000000000000000000000000000000000000000000081526004016104c6939291906110ed565b60405180910390fd5b60018060146101000a81548160ff021916908360018111156104f4576104f36113ea565b5b021790555060007f000000000000000000000000000000000000000000000000000000000000000073ffffffffffffffffffffffffffffffffffffffff16635d3b1d307f00000000000000000000000000000000000000000000000000000000000000007f000000000000000000000000000000000000000000000000000000000000000060037f000000000000000000000000000000000000000000000000000000000000000060016040518663ffffffff1660e01b81526004016105be959493929190611064565b602060405180830381600087803b1580156105d857600080fd5b505af11580156105ec573d6000803e3d6000fd5b505050506040513d601f19601f820116820180604052508101906106109190610e33565b9050807febf56642252004c18a776f30d528e7a0ce8c5db14b6596fb6550f630c8a24c6c60405160405180910390a250505050565b6000600160009054906101000a900473ffffffffffffffffffffffffffffffffffffffff16905090565b60006001905090565b60006003905090565b6000600160149054906101000a900460ff16905090565b600060606000600160149054906101000a900460ff1660018111156106c0576106bf6113ea565b5b600060018111156106d4576106d36113ea565b5b14905060007f00000000000000000000000000000000000000000000000000000000000000006002544261070891906111e8565b119050600080600080549050119050600080471190508380156107285750825b80156107315750815b801561073a5750805b955050505050915091565b600042905090565b60007f0000000000000000000000000000000000000000000000000000000000000000905090565b7f00000000000000000000000000000000000000000000000000000000000000003410156107cf576040517fec269fd100000000000000000000000000000000000000000000000000000000815260040160405180910390fd5b600060018111156107e3576107e26113ea565b5b600160149054906101000a900460ff166001811115610805576108046113ea565b5b1461083c576040517f7d6d79f400000000000000000000000000000000000000000000000000000000815260040160405180910390fd5b6000339080600181540180825580915050600190039060005260206000200160009091909190916101000a81548173ffffffffffffffffffffffffffffffffffffffff021916908373ffffffffffffffffffffffffffffffffffffffff1602179055503373ffffffffffffffffffffffffffffffffffffffff167f1d64fb5ba9f2548c5b98468d58f25b87b9e866afee0122e92d9fe722bf85076c60405160405180910390a2565b60007f0000000000000000000000000000000000000000000000000000000000000000905090565b6000600254905090565b60008080549050905090565b600080805490508260008151811061093d5761093c611419565b5b602002602001015161094f919061135b565b9050600080828154811061096657610965611419565b5b9060005260206000200160009054906101000a900473ffffffffffffffffffffffffffffffffffffffff16905080600160006101000a81548173ffffffffffffffffffffffffffffffffffffffff021916908373ffffffffffffffffffffffffffffffffffffffff16021790555060008173ffffffffffffffffffffffffffffffffffffffff16476040516109fa90610fdb565b60006040518083038185875af1925050503d8060008114610a37576040519150601f19603f3d011682016040523d82523d6000602084013e610a3c565b606091505b5050905080610a77576040517fe3db163900000000000000000000000000000000000000000000000000000000815260040160405180910390fd5b6000600160146101000a81548160ff02191690836001811115610a9d57610a9c6113ea565b5b0217905550600067ffffffffffffffff811115610abd57610abc611448565b5b604051908082528060200260200182016040528015610aeb5781602001602082028036833780820191505090505b5060009080519060200190610b01929190610b53565b50426002819055508173ffffffffffffffffffffffffffffffffffffffff167f5b690ec4a06fe979403046eaeea5b3ce38524683c3001f662c8b5a829632f7df60405160405180910390a25050505050565b828054828255906000526020600020908101928215610bcc579160200282015b82811115610bcb5782518260006101000a81548173ffffffffffffffffffffffffffffffffffffffff021916908373ffffffffffffffffffffffffffffffffffffffff16021790555091602001919060010190610b73565b5b509050610bd99190610bdd565b5090565b5b80821115610bf6576000816000905550600101610bde565b5090565b6000610c0d610c0884611164565b61113f565b90508083825260208201905082856020860282011115610c3057610c2f611481565b5b60005b85811015610c605781610c468882610d5e565b845260208401935060208301925050600181019050610c33565b5050509392505050565b6000610c7d610c7884611190565b61113f565b905082815260208101848484011115610c9957610c98611486565b5b610ca48482856112e8565b509392505050565b600082601f830112610cc157610cc061147c565b5b8135610cd1848260208601610bfa565b91505092915050565b60008083601f840112610cf057610cef61147c565b5b8235905067ffffffffffffffff811115610d0d57610d0c611477565b5b602083019150836001820283011115610d2957610d28611481565b5b9250929050565b600082601f830112610d4557610d4461147c565b5b8135610d55848260208601610c6a565b91505092915050565b600081359050610d6d816114bd565b92915050565b600081519050610d82816114bd565b92915050565b600081359050610d97816114d4565b92915050565b60008060208385031215610db457610db3611490565b5b600083013567ffffffffffffffff811115610dd257610dd161148b565b5b610dde85828601610cda565b92509250509250929050565b600060208284031215610e0057610dff611490565b5b600082013567ffffffffffffffff811115610e1e57610e1d61148b565b5b610e2a84828501610d30565b91505092915050565b600060208284031215610e4957610e48611490565b5b6000610e5784828501610d73565b91505092915050565b60008060408385031215610e7757610e76611490565b5b6000610e8585828601610d5e565b925050602083013567ffffffffffffffff811115610ea657610ea561148b565b5b610eb285828601610cac565b9150509250929050565b600060208284031215610ed257610ed1611490565b5b6000610ee084828501610d88565b91505092915050565b610ef28161121c565b82525050565b610f018161122e565b82525050565b610f108161123a565b82525050565b6000610f21826111c1565b610f2b81856111cc565b9350610f3b8185602086016112f7565b610f4481611495565b840191505092915050565b610f58816112b2565b82525050565b6000610f6b6000836111dd565b9150610f76826114a6565b600082019050919050565b610f8a81611277565b82525050565b610f9981611281565b82525050565b610fa881611291565b82525050565b610fb7816112c4565b82525050565b610fc6816112d6565b82525050565b610fd5816112a5565b82525050565b6000610fe682610f5e565b9150819050919050565b60006020820190506110056000830184610ee9565b92915050565b60006040820190506110206000830185610ee9565b61102d6020830184610ee9565b9392505050565b60006040820190506110496000830185610ef8565b818103602083015261105b8184610f16565b90509392505050565b600060a0820190506110796000830188610f07565b6110866020830187610f9f565b6110936040830186610fae565b6110a06060830185610f90565b6110ad6080830184610fbd565b9695505050505050565b60006020820190506110cc6000830184610f4f565b92915050565b60006020820190506110e76000830184610f81565b92915050565b60006060820190506111026000830186610f81565b61110f6020830185610f81565b61111c6040830184610f81565b949350505050565b60006020820190506111396000830184610fcc565b92915050565b600061114961115a565b9050611155828261132a565b919050565b6000604051905090565b600067ffffffffffffffff82111561117f5761117e611448565b5b602082029050602081019050919050565b600067ffffffffffffffff8211156111ab576111aa611448565b5b6111b482611495565b9050602081019050919050565b600081519050919050565b600082825260208201905092915050565b600081905092915050565b60006111f382611277565b91506111fe83611277565b9250828210156112115761121061138c565b5b828203905092915050565b600061122782611257565b9050919050565b60008115159050919050565b6000819050919050565b6000819050611252826114a9565b919050565b600073ffffffffffffffffffffffffffffffffffffffff82169050919050565b6000819050919050565b600063ffffffff82169050919050565b600067ffffffffffffffff82169050919050565b600060ff82169050919050565b60006112bd82611244565b9050919050565b60006112cf826112a5565b9050919050565b60006112e1826112a5565b9050919050565b82818337600083830152505050565b60005b838110156113155780820151818401526020810190506112fa565b83811115611324576000848401525b50505050565b61133382611495565b810181811067ffffffffffffffff8211171561135257611351611448565b5b80604052505050565b600061136682611277565b915061137183611277565b925082611381576113806113bb565b5b828206905092915050565b7f4e487b7100000000000000000000000000000000000000000000000000000000600052601160045260246000fd5b7f4e487b7100000000000000000000000000000000000000000000000000000000600052601260045260246000fd5b7f4e487b7100000000000000000000000000000000000000000000000000000000600052602160045260246000fd5b7f4e487b7100000000000000000000000000000000000000000000000000000000600052603260045260246000fd5b7f4e487b7100000000000000000000000000000000000000000000000000000000600052604160045260246000fd5b600080fd5b600080fd5b600080fd5b600080fd5b600080fd5b600080fd5b6000601f19601f8301169050919050565b50565b600281106114ba576114b96113ea565b5b50565b6114c681611277565b81146114d157600080fd5b50565b6114dd816112a5565b81146114e857600080fd5b5056fea26469706673582212205c823d249cac2dff9a537ca8d1f8d8ec28976269d8ce07bf627fce2be761d5a464736f6c63430008070033",
  "linkReferences": {},
  "deployedLinkReferences": {}
}