{
  "_format": "hh-sol-artifact-1",
  "contractName": "Lottery",
  "sourceName": "contracts/lottery.sol",
  "abi": [
    {
      "inputs": [
        {
          "internalType": "address",
          "name": "vrfCoordinatorV2",
          "type": "address"
        },
        {
          "internalType": "uint256",
          "name": "entranceFee",
          "type": "uint256"
        },
        {
          "internalType": "bytes32",
          "name": "keyHash",
          "type": "bytes32"
        },
        {
          "internalType": "uint64",
          "name": "subscriptionId",
          "type": "uint64"
        },
        {
          "internalType": "uint32",
          "name": "callbackGasLimit",
          "type": "uint32"
        },
        {
          "internalType": "uint256",
          "name": "interval",
          "type": "uint256"
        }
      ],
      "stateMutability": "nonpayable",
      "type": "constructor"
    },
    {
      "inputs": [],
      "name": "Lottery__NotEnoughETHEntered",
      "type": "error"
    },
    {
      "inputs": [],
      "name": "Lottery__WithdrawCallFailed",
      "type": "error"
    },
    {
      "inputs": [],
      "name": "Lottery__closed",
      "type": "error"
    },
    {
      "inputs": [
        {
          "internalType": "uint256",
          "name": "currBalance",
          "type": "uint256"
        },
        {
          "internalType": "uint256",
          "name": "players",
          "type": "uint256"
        },
        {
          "internalType": "uint256",
          "name": "lotteryState",
          "type": "uint256"
        }
      ],
      "name": "Lottery__noUpkeepNeeded",
      "type": "error"
    },
    {
      "inputs": [
        {
          "internalType": "address",
          "name": "have",
          "type": "address"
        },
        {
          "internalType": "address",
          "name": "want",
          "type": "address"
        }
      ],
      "name": "OnlyCoordinatorCanFulfill",
      "type": "error"
    },
    {
      "anonymous": false,
      "inputs": [
        {
          "indexed": true,
          "internalType": "address",
          "name": "player",
          "type": "address"
        }
      ],
      "name": "LotteryEnter",
      "type": "event"
    },
    {
      "anonymous": false,
      "inputs": [
        {
          "indexed": true,
          "internalType": "uint256",
          "name": "requestId",
          "type": "uint256"
        }
      ],
      "name": "RequestedLotteryWinner",
      "type": "event"
    },
    {
      "anonymous": false,
      "inputs": [
        {
          "indexed": true,
          "internalType": "address",
          "name": "winner",
          "type": "address"
        }
      ],
      "name": "WinnerPicked",
      "type": "event"
    },
    {
      "inputs": [
        {
          "internalType": "bytes",
          "name": "",
          "type": "bytes"
        }
      ],
      "name": "checkUpkeep",
      "outputs": [
        {
          "internalType": "bool",
          "name": "upkeep",
          "type": "bool"
        },
        {
          "internalType": "bytes",
          "name": "",
          "type": "bytes"
        }
      ],
      "stateMutability": "nonpayable",
      "type": "function"
    },
    {
      "inputs": [],
      "name": "enterLottery",
      "outputs": [],
      "stateMutability": "payable",
      "type": "function"
    },
    {
      "inputs": [],
      "name": "getEntryFee",
      "outputs": [
        {
          "internalType": "uint256",
          "name": "",
          "type": "uint256"
        }
      ],
      "stateMutability": "view",
      "type": "function"
    },
    {
      "inputs": [],
      "name": "getLatestTimestamp",
      "outputs": [
        {
          "internalType": "uint256",
          "name": "",
          "type": "uint256"
        }
      ],
      "stateMutability": "view",
      "type": "function"
    },
    {
      "inputs": [],
      "name": "getLotteryState",
      "outputs": [
        {
          "internalType": "enum Lottery.LotteryState",
          "name": "",
          "type": "uint8"
        }
      ],
      "stateMutability": "view",
      "type": "function"
    },
    {
      "inputs": [],
      "name": "getNumWords",
      "outputs": [
        {
          "internalType": "uint8",
          "name": "",
          "type": "uint8"
        }
      ],
      "stateMutability": "pure",
      "type": "function"
    },
    {
      "inputs": [],
      "name": "getNumberOfPlayers",
      "outputs": [
        {
          "internalType": "uint256",
          "name": "",
          "type": "uint256"
        }
      ],
      "stateMutability": "view",
      "type": "function"
    },
    {
      "inputs": [
        {
          "internalType": "uint8",
          "name": "index",
          "type": "uint8"
        }
      ],
      "name": "getPlayer",
      "outputs": [
        {
          "internalType": "address",
          "name": "",
          "type": "address"
        }
      ],
      "stateMutability": "view",
      "type": "function"
    },
    {
      "inputs": [],
      "name": "getRecentWinner",
      "outputs": [
        {
          "internalType": "address",
          "name": "",
          "type": "address"
        }
      ],
      "stateMutability": "view",
      "type": "function"
    },
    {
      "inputs": [],
      "name": "getRequestConfirmations",
      "outputs": [
        {
          "internalType": "uint8",
          "name": "",
          "type": "uint8"
        }
      ],
      "stateMutability": "pure",
      "type": "function"
    },
    {
      "inputs": [
        {
          "internalType": "bytes",
          "name": "",
          "type": "bytes"
        }
      ],
      "name": "performUpkeep",
      "outputs": [],
      "stateMutability": "nonpayable",
      "type": "function"
    },
    {
      "inputs": [
        {
          "internalType": "uint256",
          "name": "requestId",
          "type": "uint256"
        },
        {
          "internalType": "uint256[]",
          "name": "randomWords",
          "type": "uint256[]"
        }
      ],
      "name": "rawFulfillRandomWords",
      "outputs": [],
      "stateMutability": "nonpayable",
      "type": "function"
    }
  ],
  "bytecode": "0x6101606040523480156200001257600080fd5b5060405162001795380380620017958339818101604052810190620000389190620001a6565b858073ffffffffffffffffffffffffffffffffffffffff1660808173ffffffffffffffffffffffffffffffffffffffff1660601b81525050508460a081815250508573ffffffffffffffffffffffffffffffffffffffff1660c08173ffffffffffffffffffffffffffffffffffffffff1660601b815250508360e081815250508267ffffffffffffffff166101008167ffffffffffffffff1660c01b815250508163ffffffff166101208163ffffffff1660e01b815250506000600160146101000a81548160ff02191690836001811115620001195762000118620002ae565b5b021790555080610140818152505050505050505062000364565b6000815190506200014481620002e2565b92915050565b6000815190506200015b81620002fc565b92915050565b600081519050620001728162000316565b92915050565b600081519050620001898162000330565b92915050565b600081519050620001a0816200034a565b92915050565b60008060008060008060c08789031215620001c657620001c5620002dd565b5b6000620001d689828a0162000133565b9650506020620001e989828a0162000161565b9550506040620001fc89828a016200014a565b94505060606200020f89828a016200018f565b93505060806200022289828a0162000178565b92505060a06200023589828a0162000161565b9150509295509295509295565b60006200024f8262000260565b9050919050565b6000819050919050565b600073ffffffffffffffffffffffffffffffffffffffff82169050919050565b6000819050919050565b600063ffffffff82169050919050565b600067ffffffffffffffff82169050919050565b7f4e487b7100000000000000000000000000000000000000000000000000000000600052602160045260246000fd5b600080fd5b620002ed8162000242565b8114620002f957600080fd5b50565b620003078162000256565b81146200031357600080fd5b50565b620003218162000280565b81146200032d57600080fd5b50565b6200033b816200028a565b81146200034757600080fd5b50565b62000355816200029a565b81146200036157600080fd5b50565b60805160601c60a05160c05160601c60e0516101005160c01c6101205160e01c610140516113bc620003d9600039600061064e015260006104f1015260006104ce015260006104ad015260006104710152600081816106ba015261082b0152600081816102b2015261030601526113bc6000f3fe6080604052600436106100a75760003560e01c80636b68c03c116100645780636b68c03c146101bc5780636e04ff0d146101e7578063c1af578514610225578063e586a4f01461022f578063f43b52cb1461025a578063fd6673f514610285576100a7565b80631fe543e3146100ac57806339fddff6146100d55780634585e33b14610112578063473f1ddc1461013b57806353a2c19a146101665780635f1b0fd814610191575b600080fd5b3480156100b857600080fd5b506100d360048036038101906100ce9190610d00565b6102b0565b005b3480156100e157600080fd5b506100fc60048036038101906100f79190610d5c565b610370565b6040516101099190610e90565b60405180910390f35b34801561011e57600080fd5b5061013960048036038101906101349190610c8a565b6103ba565b005b34801561014757600080fd5b506101506105b8565b60405161015d9190610e90565b60405180910390f35b34801561017257600080fd5b5061017b6105e2565b6040516101889190610fc4565b60405180910390f35b34801561019d57600080fd5b506101a66105eb565b6040516101b39190610fc4565b60405180910390f35b3480156101c857600080fd5b506101d16105f4565b6040516101de9190610f57565b60405180910390f35b3480156101f357600080fd5b5061020e60048036038101906102099190610c8a565b61060b565b60405161021c929190610ed4565b60405180910390f35b61022d6106b8565b005b34801561023b57600080fd5b50610244610827565b6040516102519190610f72565b60405180910390f35b34801561026657600080fd5b5061026f61084f565b60405161027c9190610f72565b60405180910390f35b34801561029157600080fd5b5061029a610859565b6040516102a79190610f72565b60405180910390f35b7f000000000000000000000000000000000000000000000000000000000000000073ffffffffffffffffffffffffffffffffffffffff163373ffffffffffffffffffffffffffffffffffffffff161461036257337f00000000000000000000000000000000000000000000000000000000000000006040517f1cf993f4000000000000000000000000000000000000000000000000000000008152600401610359929190610eab565b60405180910390fd5b61036c8282610865565b5050565b6000808260ff1681548110610388576103876112b9565b5b9060005260206000200160009054906101000a900473ffffffffffffffffffffffffffffffffffffffff169050919050565b60006103d46040518060200160405280600081525061060b565b509050806104435747600080549050600160149054906101000a900460ff1660018111156104055761040461128a565b5b6040517f22e344be00000000000000000000000000000000000000000000000000000000815260040161043a93929190610f8d565b60405180910390fd5b60018060146101000a81548160ff021916908360018111156104685761046761128a565b5b021790555060007f000000000000000000000000000000000000000000000000000000000000000073ffffffffffffffffffffffffffffffffffffffff16635d3b1d307f00000000000000000000000000000000000000000000000000000000000000007f000000000000000000000000000000000000000000000000000000000000000060037f000000000000000000000000000000000000000000000000000000000000000060016040518663ffffffff1660e01b8152600401610532959493929190610f04565b602060405180830381600087803b15801561054c57600080fd5b505af1158015610560573d6000803e3d6000fd5b505050506040513d601f19601f820116820180604052508101906105849190610cd3565b9050807febf56642252004c18a776f30d528e7a0ce8c5db14b6596fb6550f630c8a24c6c60405160405180910390a2505050565b6000600160009054906101000a900473ffffffffffffffffffffffffffffffffffffffff16905090565b60006001905090565b60006003905090565b6000600160149054906101000a900460ff16905090565b600060606000600160149054906101000a900460ff1660018111156106335761063261128a565b5b600060018111156106475761064661128a565b5b14905060007f00000000000000000000000000000000000000000000000000000000000000006002544261067b9190611088565b1190506000806000805490501190506000804711905083801561069b5750825b80156106a45750815b80156106ad5750805b955050505050915091565b7f0000000000000000000000000000000000000000000000000000000000000000341015610712576040517fec269fd100000000000000000000000000000000000000000000000000000000815260040160405180910390fd5b600060018111156107265761072561128a565b5b600160149054906101000a900460ff1660018111156107485761074761128a565b5b1461077f576040517fd39da93200000000000000000000000000000000000000000000000000000000815260040160405180910390fd5b6000339080600181540180825580915050600190039060005260206000200160009091909190916101000a81548173ffffffffffffffffffffffffffffffffffffffff021916908373ffffffffffffffffffffffffffffffffffffffff1602179055503373ffffffffffffffffffffffffffffffffffffffff167f1d64fb5ba9f2548c5b98468d58f25b87b9e866afee0122e92d9fe722bf85076c60405160405180910390a2565b60007f0000000000000000000000000000000000000000000000000000000000000000905090565b6000600254905090565b60008080549050905090565b60008080549050826000815181106108805761087f6112b9565b5b602002602001015161089291906111fb565b905060008082815481106108a9576108a86112b9565b5b9060005260206000200160009054906101000a900473ffffffffffffffffffffffffffffffffffffffff16905080600160006101000a81548173ffffffffffffffffffffffffffffffffffffffff021916908373ffffffffffffffffffffffffffffffffffffffff16021790555060008173ffffffffffffffffffffffffffffffffffffffff164760405161093d90610e7b565b60006040518083038185875af1925050503d806000811461097a576040519150601f19603f3d011682016040523d82523d6000602084013e61097f565b606091505b50509050806109ba576040517fe3db163900000000000000000000000000000000000000000000000000000000815260040160405180910390fd5b6000600160146101000a81548160ff021916908360018111156109e0576109df61128a565b5b0217905550600067ffffffffffffffff811115610a00576109ff6112e8565b5b604051908082528060200260200182016040528015610a2e5781602001602082028036833780820191505090505b5060009080519060200190610a44929190610a96565b50426002819055508173ffffffffffffffffffffffffffffffffffffffff167f5b690ec4a06fe979403046eaeea5b3ce38524683c3001f662c8b5a829632f7df60405160405180910390a25050505050565b828054828255906000526020600020908101928215610b0f579160200282015b82811115610b0e5782518260006101000a81548173ffffffffffffffffffffffffffffffffffffffff021916908373ffffffffffffffffffffffffffffffffffffffff16021790555091602001919060010190610ab6565b5b509050610b1c9190610b20565b5090565b5b80821115610b39576000816000905550600101610b21565b5090565b6000610b50610b4b84611004565b610fdf565b90508083825260208201905082856020860282011115610b7357610b7261131c565b5b60005b85811015610ba35781610b898882610c4b565b845260208401935060208301925050600181019050610b76565b5050509392505050565b6000610bc0610bbb84611030565b610fdf565b905082815260208101848484011115610bdc57610bdb611321565b5b610be7848285611188565b509392505050565b600082601f830112610c0457610c03611317565b5b8135610c14848260208601610b3d565b91505092915050565b600082601f830112610c3257610c31611317565b5b8135610c42848260208601610bad565b91505092915050565b600081359050610c5a81611358565b92915050565b600081519050610c6f81611358565b92915050565b600081359050610c848161136f565b92915050565b600060208284031215610ca057610c9f61132b565b5b600082013567ffffffffffffffff811115610cbe57610cbd611326565b5b610cca84828501610c1d565b91505092915050565b600060208284031215610ce957610ce861132b565b5b6000610cf784828501610c60565b91505092915050565b60008060408385031215610d1757610d1661132b565b5b6000610d2585828601610c4b565b925050602083013567ffffffffffffffff811115610d4657610d45611326565b5b610d5285828601610bef565b9150509250929050565b600060208284031215610d7257610d7161132b565b5b6000610d8084828501610c75565b91505092915050565b610d92816110bc565b82525050565b610da1816110ce565b82525050565b610db0816110da565b82525050565b6000610dc182611061565b610dcb818561106c565b9350610ddb818560208601611197565b610de481611330565b840191505092915050565b610df881611152565b82525050565b6000610e0b60008361107d565b9150610e1682611341565b600082019050919050565b610e2a81611117565b82525050565b610e3981611121565b82525050565b610e4881611131565b82525050565b610e5781611164565b82525050565b610e6681611176565b82525050565b610e7581611145565b82525050565b6000610e8682610dfe565b9150819050919050565b6000602082019050610ea56000830184610d89565b92915050565b6000604082019050610ec06000830185610d89565b610ecd6020830184610d89565b9392505050565b6000604082019050610ee96000830185610d98565b8181036020830152610efb8184610db6565b90509392505050565b600060a082019050610f196000830188610da7565b610f266020830187610e3f565b610f336040830186610e4e565b610f406060830185610e30565b610f4d6080830184610e5d565b9695505050505050565b6000602082019050610f6c6000830184610def565b92915050565b6000602082019050610f876000830184610e21565b92915050565b6000606082019050610fa26000830186610e21565b610faf6020830185610e21565b610fbc6040830184610e21565b949350505050565b6000602082019050610fd96000830184610e6c565b92915050565b6000610fe9610ffa565b9050610ff582826111ca565b919050565b6000604051905090565b600067ffffffffffffffff82111561101f5761101e6112e8565b5b602082029050602081019050919050565b600067ffffffffffffffff82111561104b5761104a6112e8565b5b61105482611330565b9050602081019050919050565b600081519050919050565b600082825260208201905092915050565b600081905092915050565b600061109382611117565b915061109e83611117565b9250828210156110b1576110b061122c565b5b828203905092915050565b60006110c7826110f7565b9050919050565b60008115159050919050565b6000819050919050565b60008190506110f282611344565b919050565b600073ffffffffffffffffffffffffffffffffffffffff82169050919050565b6000819050919050565b600063ffffffff82169050919050565b600067ffffffffffffffff82169050919050565b600060ff82169050919050565b600061115d826110e4565b9050919050565b600061116f82611145565b9050919050565b600061118182611145565b9050919050565b82818337600083830152505050565b60005b838110156111b557808201518184015260208101905061119a565b838111156111c4576000848401525b50505050565b6111d382611330565b810181811067ffffffffffffffff821117156111f2576111f16112e8565b5b80604052505050565b600061120682611117565b915061121183611117565b9250826112215761122061125b565b5b828206905092915050565b7f4e487b7100000000000000000000000000000000000000000000000000000000600052601160045260246000fd5b7f4e487b7100000000000000000000000000000000000000000000000000000000600052601260045260246000fd5b7f4e487b7100000000000000000000000000000000000000000000000000000000600052602160045260246000fd5b7f4e487b7100000000000000000000000000000000000000000000000000000000600052603260045260246000fd5b7f4e487b7100000000000000000000000000000000000000000000000000000000600052604160045260246000fd5b600080fd5b600080fd5b600080fd5b600080fd5b600080fd5b6000601f19601f8301169050919050565b50565b600281106113555761135461128a565b5b50565b61136181611117565b811461136c57600080fd5b50565b61137881611145565b811461138357600080fd5b5056fea264697066735822122000c9a35bb1092defa4b952532a23b6947338db0de749ee5d2210abc1d046bdbf64736f6c63430008070033",
  "linkReferences": {},
  "deployedLinkReferences": {}
}